{
  "_format": "hh3-artifact-1",
  "contractName": "ActivitiesManagement",
  "sourceName": "contracts/ActivitiesManagement.sol",
  "abi": [
    {
      "inputs": [
        {
          "internalType": "address",
          "name": "_authorityManagementAddress",
          "type": "address"
        }
      ],
      "stateMutability": "nonpayable",
      "type": "constructor"
    },
    {
      "anonymous": false,
      "inputs": [
        {
          "indexed": true,
          "internalType": "uint256",
          "name": "activityId",
          "type": "uint256"
        },
        {
          "components": [
            {
              "internalType": "string",
              "name": "dataCID",
              "type": "string"
            },
            {
              "internalType": "string",
              "name": "topic",
              "type": "string"
            },
            {
              "internalType": "address",
              "name": "creator",
              "type": "address"
            },
            {
              "internalType": "uint256",
              "name": "maxParticipants",
              "type": "uint256"
            },
            {
              "internalType": "uint256",
              "name": "cuParticipants",
              "type": "uint256"
            },
            {
              "internalType": "uint256",
              "name": "activityId",
              "type": "uint256"
            }
          ],
          "indexed": false,
          "internalType": "struct ActivitiesManagement.Activity",
          "name": "activity",
          "type": "tuple"
        }
      ],
      "name": "ActivityCreated",
      "type": "event"
    },
    {
      "anonymous": false,
      "inputs": [
        {
          "indexed": true,
          "internalType": "uint256",
          "name": "activityId",
          "type": "uint256"
        },
        {
          "indexed": false,
          "internalType": "address",
          "name": "user",
          "type": "address"
        }
      ],
      "name": "ActivityDeleted",
      "type": "event"
    },
    {
      "anonymous": false,
      "inputs": [
        {
          "indexed": true,
          "internalType": "uint256",
          "name": "activityId",
          "type": "uint256"
        },
        {
          "components": [
            {
              "internalType": "string",
              "name": "dataCID",
              "type": "string"
            },
            {
              "internalType": "string",
              "name": "topic",
              "type": "string"
            },
            {
              "internalType": "address",
              "name": "creator",
              "type": "address"
            },
            {
              "internalType": "uint256",
              "name": "maxParticipants",
              "type": "uint256"
            },
            {
              "internalType": "uint256",
              "name": "cuParticipants",
              "type": "uint256"
            },
            {
              "internalType": "uint256",
              "name": "activityId",
              "type": "uint256"
            }
          ],
          "indexed": false,
          "internalType": "struct ActivitiesManagement.Activity",
          "name": "activity",
          "type": "tuple"
        }
      ],
      "name": "ActivityUpdated",
      "type": "event"
    },
    {
      "anonymous": false,
      "inputs": [
        {
          "indexed": true,
          "internalType": "uint256",
          "name": "activityId",
          "type": "uint256"
        },
        {
          "indexed": false,
          "internalType": "address",
          "name": "participant",
          "type": "address"
        }
      ],
      "name": "ParticipantAdded",
      "type": "event"
    },
    {
      "anonymous": false,
      "inputs": [
        {
          "indexed": true,
          "internalType": "uint256",
          "name": "activityId",
          "type": "uint256"
        },
        {
          "indexed": false,
          "internalType": "address",
          "name": "participant",
          "type": "address"
        }
      ],
      "name": "ParticipantRemoved",
      "type": "event"
    },
    {
      "inputs": [
        {
          "internalType": "uint256",
          "name": "",
          "type": "uint256"
        }
      ],
      "name": "activities",
      "outputs": [
        {
          "internalType": "string",
          "name": "dataCID",
          "type": "string"
        },
        {
          "internalType": "string",
          "name": "topic",
          "type": "string"
        },
        {
          "internalType": "address",
          "name": "creator",
          "type": "address"
        },
        {
          "internalType": "uint256",
          "name": "maxParticipants",
          "type": "uint256"
        },
        {
          "internalType": "uint256",
          "name": "cuParticipants",
          "type": "uint256"
        },
        {
          "internalType": "uint256",
          "name": "activityId",
          "type": "uint256"
        }
      ],
      "stateMutability": "view",
      "type": "function"
    },
    {
      "inputs": [],
      "name": "activityCount",
      "outputs": [
        {
          "internalType": "uint256",
          "name": "",
          "type": "uint256"
        }
      ],
      "stateMutability": "view",
      "type": "function"
    },
    {
      "inputs": [
        {
          "internalType": "string",
          "name": "_dataCID",
          "type": "string"
        },
        {
          "internalType": "string",
          "name": "_topic",
          "type": "string"
        },
        {
          "internalType": "uint256",
          "name": "_maxParticipants",
          "type": "uint256"
        },
        {
          "internalType": "uint256",
          "name": "_cuParticipants",
          "type": "uint256"
        }
      ],
      "name": "createActivity",
      "outputs": [],
      "stateMutability": "nonpayable",
      "type": "function"
    },
    {
      "inputs": [
        {
          "internalType": "uint256",
          "name": "_activityId",
          "type": "uint256"
        }
      ],
      "name": "deleteActivity",
      "outputs": [],
      "stateMutability": "nonpayable",
      "type": "function"
    },
    {
      "inputs": [
        {
          "internalType": "uint256",
          "name": "_activityId",
          "type": "uint256"
        }
      ],
      "name": "deleteActivityForAdmin",
      "outputs": [],
      "stateMutability": "nonpayable",
      "type": "function"
    },
    {
      "inputs": [
        {
          "internalType": "uint256",
          "name": "_activityId",
          "type": "uint256"
        }
      ],
      "name": "getActivity",
      "outputs": [
        {
          "components": [
            {
              "internalType": "string",
              "name": "dataCID",
              "type": "string"
            },
            {
              "internalType": "string",
              "name": "topic",
              "type": "string"
            },
            {
              "internalType": "address",
              "name": "creator",
              "type": "address"
            },
            {
              "internalType": "uint256",
              "name": "maxParticipants",
              "type": "uint256"
            },
            {
              "internalType": "uint256",
              "name": "cuParticipants",
              "type": "uint256"
            },
            {
              "internalType": "uint256",
              "name": "activityId",
              "type": "uint256"
            }
          ],
          "internalType": "struct ActivitiesManagement.Activity",
          "name": "",
          "type": "tuple"
        }
      ],
      "stateMutability": "view",
      "type": "function"
    },
    {
      "inputs": [
        {
          "internalType": "uint256",
          "name": "",
          "type": "uint256"
        },
        {
          "internalType": "address",
          "name": "",
          "type": "address"
        }
      ],
      "name": "isParticipant",
      "outputs": [
        {
          "internalType": "bool",
          "name": "",
          "type": "bool"
        }
      ],
      "stateMutability": "view",
      "type": "function"
    },
    {
      "inputs": [
        {
          "internalType": "uint256",
          "name": "_activityId",
          "type": "uint256"
        },
        {
          "internalType": "address",
          "name": "_user",
          "type": "address"
        }
      ],
      "name": "isParticipantInActivity",
      "outputs": [
        {
          "internalType": "bool",
          "name": "",
          "type": "bool"
        }
      ],
      "stateMutability": "view",
      "type": "function"
    },
    {
      "inputs": [
        {
          "internalType": "uint256",
          "name": "_activityId",
          "type": "uint256"
        }
      ],
      "name": "participateInActivity",
      "outputs": [],
      "stateMutability": "nonpayable",
      "type": "function"
    },
    {
      "inputs": [
        {
          "internalType": "uint256",
          "name": "_activityId",
          "type": "uint256"
        },
        {
          "internalType": "string",
          "name": "_dataCID",
          "type": "string"
        },
        {
          "internalType": "string",
          "name": "_topic",
          "type": "string"
        },
        {
          "internalType": "uint256",
          "name": "_maxParticipants",
          "type": "uint256"
        }
      ],
      "name": "updateActivity",
      "outputs": [],
      "stateMutability": "nonpayable",
      "type": "function"
    },
    {
      "inputs": [
        {
          "internalType": "uint256",
          "name": "_activityId",
          "type": "uint256"
        }
      ],
      "name": "withdrawFromActivity",
      "outputs": [],
      "stateMutability": "nonpayable",
      "type": "function"
    }
  ],
  "bytecode": "0x608060405234801561000f575f5ffd5b506040516127c13803806127c1833981810160405281019061003191906100d5565b8060015f6101000a81548173ffffffffffffffffffffffffffffffffffffffff021916908373ffffffffffffffffffffffffffffffffffffffff16021790555050610100565b5f5ffd5b5f73ffffffffffffffffffffffffffffffffffffffff82169050919050565b5f6100a48261007b565b9050919050565b6100b48161009a565b81146100be575f5ffd5b50565b5f815190506100cf816100ab565b92915050565b5f602082840312156100ea576100e9610077565b5b5f6100f7848285016100c1565b91505092915050565b6126b48061010d5f395ff3fe608060405234801561000f575f5ffd5b50600436106100a7575f3560e01c8063922635d81161006f578063922635d814610164578063b4d422c314610194578063df1bd99f146101b0578063e6240deb146101cc578063f528baaa146101ea578063f95bc0a21461021a576100a7565b80630b691409146100ab5780630d1657e8146100c75780634f625354146100fc578063758d9b8914610118578063889dcf6914610148575b5f5ffd5b6100c560048036038101906100c09190611775565b610236565b005b6100e160048036038101906100dc9190611775565b61052d565b6040516100f39695949392919061185e565b60405180910390f35b61011660048036038101906101119190611775565b610690565b005b610132600480360381019061012d91906118f5565b61091d565b60405161013f919061194d565b60405180910390f35b610162600480360381019061015d9190611a92565b610946565b005b61017e60048036038101906101799190611775565b610b8e565b60405161018b9190611c21565b60405180910390f35b6101ae60048036038101906101a99190611c41565b610e3c565b005b6101ca60048036038101906101c59190611775565b611059565b005b6101d461136a565b6040516101e19190611cdd565b60405180910390f35b61020460048036038101906101ff91906118f5565b611370565b604051610211919061194d565b60405180910390f35b610234600480360381019061022f9190611775565b611421565b005b60015f9054906101000a900473ffffffffffffffffffffffffffffffffffffffff1673ffffffffffffffffffffffffffffffffffffffff16631ad7a6c0336040518263ffffffff1660e01b81526004016102909190611cf6565b602060405180830381865afa1580156102ab573d5f5f3e3d5ffd5b505050506040513d601f19601f820116820180604052508101906102cf9190611d39565b1561030f576040517f08c379a000000000000000000000000000000000000000000000000000000000815260040161030690611dae565b60405180910390fd5b5f8111801561032057506003548111155b61035f576040517f08c379a000000000000000000000000000000000000000000000000000000000815260040161035690611e16565b60405180910390fd5b5f15155f5f8381526020019081526020015f205f3373ffffffffffffffffffffffffffffffffffffffff1673ffffffffffffffffffffffffffffffffffffffff1681526020019081526020015f205f9054906101000a900460ff161515146103fc576040517f08c379a00000000000000000000000000000000000000000000000000000000081526004016103f390611ea4565b60405180910390fd5b60025f8281526020019081526020015f206003015460025f8381526020019081526020015f206004015410610466576040517f08c379a000000000000000000000000000000000000000000000000000000000815260040161045d90611f0c565b60405180910390fd5b60015f5f8381526020019081526020015f205f3373ffffffffffffffffffffffffffffffffffffffff1673ffffffffffffffffffffffffffffffffffffffff1681526020019081526020015f205f6101000a81548160ff02191690831515021790555060025f8281526020019081526020015f206004015f8154809291906104ed90611f57565b9190505550807f12246ba2398106df92bc0281a1eece14e5b8516c5c3dab76205391650e39fddb336040516105229190611cf6565b60405180910390a250565b6002602052805f5260405f205f91509050805f01805461054c90611fcb565b80601f016020809104026020016040519081016040528092919081815260200182805461057890611fcb565b80156105c35780601f1061059a576101008083540402835291602001916105c3565b820191905f5260205f20905b8154815290600101906020018083116105a657829003601f168201915b5050505050908060010180546105d890611fcb565b80601f016020809104026020016040519081016040528092919081815260200182805461060490611fcb565b801561064f5780601f106106265761010080835404028352916020019161064f565b820191905f5260205f20905b81548152906001019060200180831161063257829003601f168201915b505050505090806002015f9054906101000a900473ffffffffffffffffffffffffffffffffffffffff16908060030154908060040154908060050154905086565b60015f9054906101000a900473ffffffffffffffffffffffffffffffffffffffff1673ffffffffffffffffffffffffffffffffffffffff16631ad7a6c0336040518263ffffffff1660e01b81526004016106ea9190611cf6565b602060405180830381865afa158015610705573d5f5f3e3d5ffd5b505050506040513d601f19601f820116820180604052508101906107299190611d39565b15610769576040517f08c379a000000000000000000000000000000000000000000000000000000000815260040161076090611dae565b60405180910390fd5b5f8111801561077a57506003548111155b6107b9576040517f08c379a00000000000000000000000000000000000000000000000000000000081526004016107b090611e16565b60405180910390fd5b600115155f5f8381526020019081526020015f205f3373ffffffffffffffffffffffffffffffffffffffff1673ffffffffffffffffffffffffffffffffffffffff1681526020019081526020015f205f9054906101000a900460ff16151514610857576040517f08c379a000000000000000000000000000000000000000000000000000000000815260040161084e9061206b565b60405180910390fd5b5f5f5f8381526020019081526020015f205f3373ffffffffffffffffffffffffffffffffffffffff1673ffffffffffffffffffffffffffffffffffffffff1681526020019081526020015f205f6101000a81548160ff02191690831515021790555060025f8281526020019081526020015f206004015f8154809291906108dd90612089565b9190505550807fcef8fac05afb87995942422eac900de6af11a555d80d075340af81db492119fe336040516109129190611cf6565b60405180910390a250565b5f602052815f5260405f20602052805f5260405f205f915091509054906101000a900460ff1681565b60015f9054906101000a900473ffffffffffffffffffffffffffffffffffffffff1673ffffffffffffffffffffffffffffffffffffffff1663028a395b336040518263ffffffff1660e01b81526004016109a09190611cf6565b602060405180830381865afa1580156109bb573d5f5f3e3d5ffd5b505050506040513d601f19601f820116820180604052508101906109df9190611d39565b610a1e576040517f08c379a0000000000000000000000000000000000000000000000000000000008152600401610a15906120fa565b60405180910390fd5b5f84118015610a2f57506003548411155b610a6e576040517f08c379a0000000000000000000000000000000000000000000000000000000008152600401610a6590611e16565b60405180910390fd5b3373ffffffffffffffffffffffffffffffffffffffff1660025f8681526020019081526020015f206002015f9054906101000a900473ffffffffffffffffffffffffffffffffffffffff1673ffffffffffffffffffffffffffffffffffffffff1614610b0f576040517f08c379a0000000000000000000000000000000000000000000000000000000008152600401610b0690612162565b60405180910390fd5b5f60025f8681526020019081526020015f20905083815f019081610b339190612320565b5082816001019081610b459190612320565b50818160030181905550847f117b317dd0ea76335609f1b1bf5abb5ad67e5861701e0cc4cb11216fadbbc46482604051610b7f919061258e565b60405180910390a25050505050565b610b96611691565b5f82118015610ba757506003548211155b610be6576040517f08c379a0000000000000000000000000000000000000000000000000000000008152600401610bdd90611e16565b60405180910390fd5b5f73ffffffffffffffffffffffffffffffffffffffff1660025f8481526020019081526020015f206002015f9054906101000a900473ffffffffffffffffffffffffffffffffffffffff1673ffffffffffffffffffffffffffffffffffffffff1603610c87576040517f08c379a0000000000000000000000000000000000000000000000000000000008152600401610c7e906125f8565b60405180910390fd5b60025f8381526020019081526020015f206040518060c00160405290815f82018054610cb290611fcb565b80601f0160208091040260200160405190810160405280929190818152602001828054610cde90611fcb565b8015610d295780601f10610d0057610100808354040283529160200191610d29565b820191905f5260205f20905b815481529060010190602001808311610d0c57829003601f168201915b50505050508152602001600182018054610d4290611fcb565b80601f0160208091040260200160405190810160405280929190818152602001828054610d6e90611fcb565b8015610db95780601f10610d9057610100808354040283529160200191610db9565b820191905f5260205f20905b815481529060010190602001808311610d9c57829003601f168201915b50505050508152602001600282015f9054906101000a900473ffffffffffffffffffffffffffffffffffffffff1673ffffffffffffffffffffffffffffffffffffffff1673ffffffffffffffffffffffffffffffffffffffff16815260200160038201548152602001600482015481526020016005820154815250509050919050565b60015f9054906101000a900473ffffffffffffffffffffffffffffffffffffffff1673ffffffffffffffffffffffffffffffffffffffff1663028a395b336040518263ffffffff1660e01b8152600401610e969190611cf6565b602060405180830381865afa158015610eb1573d5f5f3e3d5ffd5b505050506040513d601f19601f82011682018060405250810190610ed59190611d39565b610f14576040517f08c379a0000000000000000000000000000000000000000000000000000000008152600401610f0b906120fa565b60405180910390fd5b60035f815480929190610f2690611f57565b91905055505f6040518060c001604052808681526020018581526020013373ffffffffffffffffffffffffffffffffffffffff16815260200184815260200183815260200160035481525090508060025f60035481526020019081526020015f205f820151815f019081610f9a9190612320565b506020820151816001019081610fb09190612320565b506040820151816002015f6101000a81548173ffffffffffffffffffffffffffffffffffffffff021916908373ffffffffffffffffffffffffffffffffffffffff160217905550606082015181600301556080820151816004015560a082015181600501559050506003547fb52437d209d59531d9553c5bb3d8c3b67475a902ef642e47a4a7036a641d7a3e8260405161104a9190611c21565b60405180910390a25050505050565b60015f9054906101000a900473ffffffffffffffffffffffffffffffffffffffff1673ffffffffffffffffffffffffffffffffffffffff1663028a395b336040518263ffffffff1660e01b81526004016110b39190611cf6565b602060405180830381865afa1580156110ce573d5f5f3e3d5ffd5b505050506040513d601f19601f820116820180604052508101906110f29190611d39565b611131576040517f08c379a0000000000000000000000000000000000000000000000000000000008152600401611128906120fa565b60405180910390fd5b5f8111801561114257506003548111155b611181576040517f08c379a000000000000000000000000000000000000000000000000000000000815260040161117890611e16565b60405180910390fd5b5f73ffffffffffffffffffffffffffffffffffffffff1660025f8381526020019081526020015f206002015f9054906101000a900473ffffffffffffffffffffffffffffffffffffffff1673ffffffffffffffffffffffffffffffffffffffff1603611222576040517f08c379a0000000000000000000000000000000000000000000000000000000008152600401611219906125f8565b60405180910390fd5b3373ffffffffffffffffffffffffffffffffffffffff1660025f8381526020019081526020015f206002015f9054906101000a900473ffffffffffffffffffffffffffffffffffffffff1673ffffffffffffffffffffffffffffffffffffffff16146112c3576040517f08c379a00000000000000000000000000000000000000000000000000000000081526004016112ba90612162565b60405180910390fd5b60025f8281526020019081526020015f205f5f82015f6112e391906116d9565b600182015f6112f291906116d9565b600282015f6101000a81549073ffffffffffffffffffffffffffffffffffffffff0219169055600382015f9055600482015f9055600582015f90555050807fe941bd7c30e96f6f28d4ad5b33aa783b9af32be576e83724144917c9736409113360405161135f9190611cf6565b60405180910390a250565b60035481565b5f5f8311801561138257506003548311155b6113c1576040517f08c379a00000000000000000000000000000000000000000000000000000000081526004016113b890611e16565b60405180910390fd5b5f5f8481526020019081526020015f205f8373ffffffffffffffffffffffffffffffffffffffff1673ffffffffffffffffffffffffffffffffffffffff1681526020019081526020015f205f9054906101000a900460ff16905092915050565b60015f9054906101000a900473ffffffffffffffffffffffffffffffffffffffff1673ffffffffffffffffffffffffffffffffffffffff166324d7806c336040518263ffffffff1660e01b815260040161147b9190611cf6565b602060405180830381865afa158015611496573d5f5f3e3d5ffd5b505050506040513d601f19601f820116820180604052508101906114ba9190611d39565b6114f9576040517f08c379a00000000000000000000000000000000000000000000000000000000081526004016114f090612660565b60405180910390fd5b5f8111801561150a57506003548111155b611549576040517f08c379a000000000000000000000000000000000000000000000000000000000815260040161154090611e16565b60405180910390fd5b5f73ffffffffffffffffffffffffffffffffffffffff1660025f8381526020019081526020015f206002015f9054906101000a900473ffffffffffffffffffffffffffffffffffffffff1673ffffffffffffffffffffffffffffffffffffffff16036115ea576040517f08c379a00000000000000000000000000000000000000000000000000000000081526004016115e1906125f8565b60405180910390fd5b60025f8281526020019081526020015f205f5f82015f61160a91906116d9565b600182015f61161991906116d9565b600282015f6101000a81549073ffffffffffffffffffffffffffffffffffffffff0219169055600382015f9055600482015f9055600582015f90555050807fe941bd7c30e96f6f28d4ad5b33aa783b9af32be576e83724144917c973640911336040516116869190611cf6565b60405180910390a250565b6040518060c0016040528060608152602001606081526020015f73ffffffffffffffffffffffffffffffffffffffff1681526020015f81526020015f81526020015f81525090565b5080546116e590611fcb565b5f825580601f106116f65750611713565b601f0160209004905f5260205f20908101906117129190611716565b5b50565b5b8082111561172d575f815f905550600101611717565b5090565b5f604051905090565b5f5ffd5b5f5ffd5b5f819050919050565b61175481611742565b811461175e575f5ffd5b50565b5f8135905061176f8161174b565b92915050565b5f6020828403121561178a5761178961173a565b5b5f61179784828501611761565b91505092915050565b5f81519050919050565b5f82825260208201905092915050565b8281835e5f83830152505050565b5f601f19601f8301169050919050565b5f6117e2826117a0565b6117ec81856117aa565b93506117fc8185602086016117ba565b611805816117c8565b840191505092915050565b5f73ffffffffffffffffffffffffffffffffffffffff82169050919050565b5f61183982611810565b9050919050565b6118498161182f565b82525050565b61185881611742565b82525050565b5f60c0820190508181035f83015261187681896117d8565b9050818103602083015261188a81886117d8565b90506118996040830187611840565b6118a6606083018661184f565b6118b3608083018561184f565b6118c060a083018461184f565b979650505050505050565b6118d48161182f565b81146118de575f5ffd5b50565b5f813590506118ef816118cb565b92915050565b5f5f6040838503121561190b5761190a61173a565b5b5f61191885828601611761565b9250506020611929858286016118e1565b9150509250929050565b5f8115159050919050565b61194781611933565b82525050565b5f6020820190506119605f83018461193e565b92915050565b5f5ffd5b5f5ffd5b7f4e487b71000000000000000000000000000000000000000000000000000000005f52604160045260245ffd5b6119a4826117c8565b810181811067ffffffffffffffff821117156119c3576119c261196e565b5b80604052505050565b5f6119d5611731565b90506119e1828261199b565b919050565b5f67ffffffffffffffff821115611a00576119ff61196e565b5b611a09826117c8565b9050602081019050919050565b828183375f83830152505050565b5f611a36611a31846119e6565b6119cc565b905082815260208101848484011115611a5257611a5161196a565b5b611a5d848285611a16565b509392505050565b5f82601f830112611a7957611a78611966565b5b8135611a89848260208601611a24565b91505092915050565b5f5f5f5f60808587031215611aaa57611aa961173a565b5b5f611ab787828801611761565b945050602085013567ffffffffffffffff811115611ad857611ad761173e565b5b611ae487828801611a65565b935050604085013567ffffffffffffffff811115611b0557611b0461173e565b5b611b1187828801611a65565b9250506060611b2287828801611761565b91505092959194509250565b5f82825260208201905092915050565b5f611b48826117a0565b611b528185611b2e565b9350611b628185602086016117ba565b611b6b816117c8565b840191505092915050565b611b7f8161182f565b82525050565b611b8e81611742565b82525050565b5f60c083015f8301518482035f860152611bae8282611b3e565b91505060208301518482036020860152611bc88282611b3e565b9150506040830151611bdd6040860182611b76565b506060830151611bf06060860182611b85565b506080830151611c036080860182611b85565b5060a0830151611c1660a0860182611b85565b508091505092915050565b5f6020820190508181035f830152611c398184611b94565b905092915050565b5f5f5f5f60808587031215611c5957611c5861173a565b5b5f85013567ffffffffffffffff811115611c7657611c7561173e565b5b611c8287828801611a65565b945050602085013567ffffffffffffffff811115611ca357611ca261173e565b5b611caf87828801611a65565b9350506040611cc087828801611761565b9250506060611cd187828801611761565b91505092959194509250565b5f602082019050611cf05f83018461184f565b92915050565b5f602082019050611d095f830184611840565b92915050565b611d1881611933565b8114611d22575f5ffd5b50565b5f81519050611d3381611d0f565b92915050565b5f60208284031215611d4e57611d4d61173a565b5b5f611d5b84828501611d25565b91505092915050565b7f5573657220697320626c6f636b656400000000000000000000000000000000005f82015250565b5f611d98600f836117aa565b9150611da382611d64565b602082019050919050565b5f6020820190508181035f830152611dc581611d8c565b9050919050565b7f496e76616c6964206163746976697479204944000000000000000000000000005f82015250565b5f611e006013836117aa565b9150611e0b82611dcc565b602082019050919050565b5f6020820190508181035f830152611e2d81611df4565b9050919050565b7f416c72656164792070617274696369706174656420696e2074686973206163745f8201527f6976697479000000000000000000000000000000000000000000000000000000602082015250565b5f611e8e6025836117aa565b9150611e9982611e34565b604082019050919050565b5f6020820190508181035f830152611ebb81611e82565b9050919050565b7f41637469766974792069732066756c6c000000000000000000000000000000005f82015250565b5f611ef66010836117aa565b9150611f0182611ec2565b602082019050919050565b5f6020820190508181035f830152611f2381611eea565b9050919050565b7f4e487b71000000000000000000000000000000000000000000000000000000005f52601160045260245ffd5b5f611f6182611742565b91507fffffffffffffffffffffffffffffffffffffffffffffffffffffffffffffffff8203611f9357611f92611f2a565b5b600182019050919050565b7f4e487b71000000000000000000000000000000000000000000000000000000005f52602260045260245ffd5b5f6002820490506001821680611fe257607f821691505b602082108103611ff557611ff4611f9e565b5b50919050565b7f4e6f742061207061727469636970616e7420696e2074686973206163746976695f8201527f7479000000000000000000000000000000000000000000000000000000000000602082015250565b5f6120556022836117aa565b915061206082611ffb565b604082019050919050565b5f6020820190508181035f83015261208281612049565b9050919050565b5f61209382611742565b91505f82036120a5576120a4611f2a565b5b600182039050919050565b7f4e6f7420616e206f7267616e697a6572000000000000000000000000000000005f82015250565b5f6120e46010836117aa565b91506120ef826120b0565b602082019050919050565b5f6020820190508181035f830152612111816120d8565b9050919050565b7f4e6f74207468652063726561746f72206f6620746865206163746976697479005f82015250565b5f61214c601f836117aa565b915061215782612118565b602082019050919050565b5f6020820190508181035f83015261217981612140565b9050919050565b5f819050815f5260205f209050919050565b5f6020601f8301049050919050565b5f82821b905092915050565b5f600883026121dc7fffffffffffffffffffffffffffffffffffffffffffffffffffffffffffffffff826121a1565b6121e686836121a1565b95508019841693508086168417925050509392505050565b5f819050919050565b5f61222161221c61221784611742565b6121fe565b611742565b9050919050565b5f819050919050565b61223a83612207565b61224e61224682612228565b8484546121ad565b825550505050565b5f5f905090565b612265612256565b612270818484612231565b505050565b5b81811015612293576122885f8261225d565b600181019050612276565b5050565b601f8211156122d8576122a981612180565b6122b284612192565b810160208510156122c1578190505b6122d56122cd85612192565b830182612275565b50505b505050565b5f82821c905092915050565b5f6122f85f19846008026122dd565b1980831691505092915050565b5f61231083836122e9565b9150826002028217905092915050565b612329826117a0565b67ffffffffffffffff8111156123425761234161196e565b5b61234c8254611fcb565b612357828285612297565b5f60209050601f831160018114612388575f8415612376578287015190505b6123808582612305565b8655506123e7565b601f19841661239686612180565b5f5b828110156123bd57848901518255600182019150602085019450602081019050612398565b868310156123da57848901516123d6601f8916826122e9565b8355505b6001600288020188555050505b505050505050565b5f81546123fb81611fcb565b6124058186611b2e565b9450600182165f811461241f576001811461243557612467565b60ff198316865281151560200286019350612467565b61243e85612180565b5f5b8381101561245f57815481890152600182019150602081019050612440565b808801955050505b50505092915050565b5f815f1c9050919050565b5f73ffffffffffffffffffffffffffffffffffffffff82169050919050565b5f6124ac6124a783612470565b61247b565b9050919050565b5f819050919050565b5f6124ce6124c983612470565b6124b3565b9050919050565b5f60c083015f5f84018583035f8701526124ef83826123ef565b92505060018401858303602087015261250883826123ef565b9250506002840154905061251b8161249a565b6125286040870182611b76565b5060038401549050612539816124bc565b6125466060870182611b85565b5060048401549050612557816124bc565b6125646080870182611b85565b5060058401549050612575816124bc565b61258260a0870182611b85565b50819250505092915050565b5f6020820190508181035f8301526125a681846124d5565b905092915050565b7f416374697669747920646f6573206e6f742065786973740000000000000000005f82015250565b5f6125e26017836117aa565b91506125ed826125ae565b602082019050919050565b5f6020820190508181035f83015261260f816125d6565b9050919050565b7f4e6f7420616e2061646d696e00000000000000000000000000000000000000005f82015250565b5f61264a600c836117aa565b915061265582612616565b602082019050919050565b5f6020820190508181035f8301526126778161263e565b905091905056fea2646970667358221220f663e1ab09595781a2c54b50c9f263af2b5279024dc3ca8a75de1b56f0aba4a564736f6c634300081c0033",
  "linkReferences": {},
  "deployedLinkReferences": {},
  "immutableReferences": {},
  "inputSourceName": "project/contracts/ActivitiesManagement.sol",
  "buildInfoId": "solc-0_8_28-c3d8c5252e306747454703b8236e50ed83f025d0"
}