{
  "_format": "hh3-artifact-1",
  "contractName": "PrizesManagement",
  "sourceName": "contracts/PrizesManagement.sol",
  "abi": [
    {
      "inputs": [
        {
          "internalType": "address",
          "name": "_activitiesManagementAddress",
          "type": "address"
        }
      ],
      "stateMutability": "nonpayable",
      "type": "constructor"
    },
    {
      "anonymous": false,
      "inputs": [
        {
          "indexed": true,
          "internalType": "uint256",
          "name": "activityId",
          "type": "uint256"
        },
        {
          "components": [
            {
              "components": [
                {
                  "internalType": "uint256",
                  "name": "numOfWinners",
                  "type": "uint256"
                },
                {
                  "internalType": "string[]",
                  "name": "criteria",
                  "type": "string[]"
                },
                {
                  "internalType": "uint256[]",
                  "name": "pointsOfCriteria",
                  "type": "uint256[]"
                },
                {
                  "internalType": "uint256",
                  "name": "bonusAmount",
                  "type": "uint256"
                }
              ],
              "internalType": "struct IPrizesManagement.cohort[]",
              "name": "cohorts",
              "type": "tuple[]"
            },
            {
              "internalType": "uint256",
              "name": "activityId",
              "type": "uint256"
            },
            {
              "internalType": "uint256",
              "name": "totalBonusAmount",
              "type": "uint256"
            }
          ],
          "indexed": false,
          "internalType": "struct PrizesManagement.Prize",
          "name": "prize",
          "type": "tuple"
        }
      ],
      "name": "PrizeAdded",
      "type": "event"
    },
    {
      "inputs": [
        {
          "internalType": "uint256",
          "name": "_activityId",
          "type": "uint256"
        },
        {
          "internalType": "uint256",
          "name": "_numOfCohorts",
          "type": "uint256"
        },
        {
          "internalType": "uint256[]",
          "name": "_numOfWinners",
          "type": "uint256[]"
        },
        {
          "internalType": "string[][]",
          "name": "_criteria",
          "type": "string[][]"
        },
        {
          "internalType": "uint256[][]",
          "name": "_pointsOfCriteria",
          "type": "uint256[][]"
        },
        {
          "internalType": "uint256[]",
          "name": "_bonusAmounts",
          "type": "uint256[]"
        }
      ],
      "name": "addPrizeInfo",
      "outputs": [],
      "stateMutability": "nonpayable",
      "type": "function"
    },
    {
      "inputs": [
        {
          "internalType": "uint256",
          "name": "_activityId",
          "type": "uint256"
        },
        {
          "internalType": "uint256",
          "name": "_cohortId",
          "type": "uint256"
        }
      ],
      "name": "getCohort",
      "outputs": [
        {
          "components": [
            {
              "internalType": "uint256",
              "name": "numOfWinners",
              "type": "uint256"
            },
            {
              "internalType": "string[]",
              "name": "criteria",
              "type": "string[]"
            },
            {
              "internalType": "uint256[]",
              "name": "pointsOfCriteria",
              "type": "uint256[]"
            },
            {
              "internalType": "uint256",
              "name": "bonusAmount",
              "type": "uint256"
            }
          ],
          "internalType": "struct IPrizesManagement.cohort",
          "name": "",
          "type": "tuple"
        }
      ],
      "stateMutability": "view",
      "type": "function"
    },
    {
      "inputs": [
        {
          "internalType": "uint256",
          "name": "",
          "type": "uint256"
        }
      ],
      "name": "prizes",
      "outputs": [
        {
          "internalType": "uint256",
          "name": "activityId",
          "type": "uint256"
        },
        {
          "internalType": "uint256",
          "name": "totalBonusAmount",
          "type": "uint256"
        }
      ],
      "stateMutability": "view",
      "type": "function"
    },
    {
      "inputs": [
        {
          "internalType": "address",
          "name": "_newActivitiesManagementAddress",
          "type": "address"
        }
      ],
      "name": "updateDependencies",
      "outputs": [],
      "stateMutability": "nonpayable",
      "type": "function"
    }
  ],
  "bytecode": "0x6080604052348015600e575f5ffd5b506040516112cd3803806112cd833981016040819052602b91604e565b5f80546001600160a01b0319166001600160a01b03929092169190911790556079565b5f60208284031215605d575f5ffd5b81516001600160a01b03811681146072575f5ffd5b9392505050565b611247806100865f395ff3fe608060405234801561000f575f5ffd5b506004361061004a575f3560e01c80633d0f067c1461004e578063b463affa14610063578063eccb3a4f1461008c578063fc253e21146100ca575b5f5ffd5b61006161005c3660046109ed565b6100dd565b005b610076610071366004610a0f565b6101c7565b6040516100839190610a69565b60405180910390f35b6100b561009a366004610b2c565b600260208190525f9182526040909120600181015491015482565b60408051928352602083019190915201610083565b6100616100d8366004610df3565b61041e565b60015f9054906101000a90046001600160a01b03166001600160a01b031663893d20e86040518163ffffffff1660e01b8152600401602060405180830381865afa15801561012d573d5f5f3e3d5ffd5b505050506040513d601f19601f820116820180604052508101906101519190610ebd565b6001600160a01b0316336001600160a01b0316146101a65760405162461bcd60e51b815260206004820152600d60248201526c2737ba103a34329037bbb732b960991b60448201526064015b60405180910390fd5b5f80546001600160a01b0319166001600160a01b0392909216919091179055565b6101f060405180608001604052805f815260200160608152602001606081526020015f81525090565b5f83815260026020526040812060010154900361024f5760405162461bcd60e51b815260206004820152601f60248201527f4e6f207072697a6520696e666f20666f72207468697320616374697669747900604482015260640161019d565b5f8381526002602052604090205482106102a25760405162461bcd60e51b8152602060048201526014602482015273092dcecc2d8d2c840c6ded0dee4e840d2dcc8caf60631b604482015260640161019d565b5f8381526002602052604090208054839081106102c1576102c1610ed8565b905f5260205f2090600402016040518060800160405290815f820154815260200160018201805480602002602001604051908101604052809291908181526020015f905b828210156103ad578382905f5260205f2001805461032290610eec565b80601f016020809104026020016040519081016040528092919081815260200182805461034e90610eec565b80156103995780601f1061037057610100808354040283529160200191610399565b820191905f5260205f20905b81548152906001019060200180831161037c57829003601f168201915b505050505081526020019060010190610305565b5050505081526020016002820180548060200260200160405190810160405280929190818152602001828054801561040257602002820191905f5260205f20905b8154815260200190600101908083116103ee575b5050505050815260200160038201548152505090505b92915050565b5f805460405163c22e165d60e01b8152600481018990528892916001600160a01b03169063c22e165d90602401602060405180830381865afa158015610466573d5f5f3e3d5ffd5b505050506040513d601f19601f8201168201806040525081019061048a9190610ebd565b9050336001600160a01b038216146104ef5760405162461bcd60e51b815260206004820152602260248201527f4e6f7420746865206f7267616e697a6572206f66207468697320616374697669604482015261747960f01b606482015260840161019d565b5f54604051630335182160e31b8152600481018a905289916001600160a01b0316906319a8c10890602401602060405180830381865afa158015610535573d5f5f3e3d5ffd5b505050506040513d601f19601f820116820180604052508101906105599190610f24565b61059b5760405162461bcd60e51b8152602060048201526013602482015272125b9d985b1a59081858dd1a5d9a5d1e481251606a1b604482015260640161019d565b5f54604051630257dae560e01b8152600481018390526001600160a01b0390911690630257dae590602401602060405180830381865afa1580156105e1573d5f5f3e3d5ffd5b505050506040513d601f19601f820116820180604052508101906106059190610f24565b6106485760405162461bcd60e51b81526020600482015260146024820152734e6f7420696e206861636b74686f6e2074696d6560601b604482015260640161019d565b5f89815260026020526040902060010154156106b95760405162461bcd60e51b815260206004820152602a60248201527f5072697a6520696e666f20616c726561647920616464656420666f72207468696044820152697320616374697669747960b01b606482015260840161019d565b8551881480156106ca575086518651145b80156106d7575083518651145b80156106e4575084518651145b6107305760405162461bcd60e51b815260206004820152601760248201527f4d69736d61746368656420636f686f7274732064617461000000000000000000604482015260640161019d565b5f898152600260205260408120905b8981101561087b578160405180608001604052808b848151811061076557610765610ed8565b602002602001015181526020018a848151811061078457610784610ed8565b602002602001015181526020018984815181106107a3576107a3610ed8565b602002602001015181526020018884815181106107c2576107c2610ed8565b6020908102919091018101519091528254600181810185555f94855293829020835160049092020190815582820151805193949193610809939285019291909101906108d6565b506040820151805161082591600284019160209091019061092a565b5060608201518160030155505085818151811061084457610844610ed8565b602002602001015160025f8d81526020019081526020015f206002015f82825461086e9190610f43565b909155505060010161073f565b505f8a81526002602052604090819020600181018c905590518b917fc6ca2d853028c7201830d9f7e5ebd629f2a3bb20e5ab77a85706118a47e0da6e916108c29190610f95565b60405180910390a250505050505050505050565b828054828255905f5260205f2090810192821561091a579160200282015b8281111561091a578251829061090a9082611156565b50916020019190600101906108f4565b5061092692915061096f565b5090565b828054828255905f5260205f20908101928215610963579160200282015b82811115610963578251825591602001919060010190610948565b5061092692915061098b565b80821115610926575f610982828261099f565b5060010161096f565b5b80821115610926575f815560010161098c565b5080546109ab90610eec565b5f825580601f106109ba575050565b601f0160209004905f5260205f20908101906109d6919061098b565b50565b6001600160a01b03811681146109d6575f5ffd5b5f602082840312156109fd575f5ffd5b8135610a08816109d9565b9392505050565b5f5f60408385031215610a20575f5ffd5b50508035926020909101359150565b5f8151808452602084019350602083015f5b82811015610a5f578151865260209586019590910190600101610a41565b5093949350505050565b602081525f60a082018351602084015260208401516080604085015281815180845260c08601915060c08160051b87010193506020830192505f5b81811015610af65760bf19878603018352835180518087528060208301602089015e5f602082890101526020601f19601f83011688010196505050602084019350602083019250600181019050610aa4565b505050506040840151838203601f19016060850152610b158282610a2f565b915050606084015160808401528091505092915050565b5f60208284031215610b3c575f5ffd5b5035919050565b634e487b7160e01b5f52604160045260245ffd5b604051601f8201601f1916810167ffffffffffffffff81118282101715610b8057610b80610b43565b604052919050565b5f67ffffffffffffffff821115610ba157610ba1610b43565b5060051b60200190565b5f82601f830112610bba575f5ffd5b8135610bcd610bc882610b88565b610b57565b8082825260208201915060208360051b860101925085831115610bee575f5ffd5b602085015b83811015610c0b578035835260209283019201610bf3565b5095945050505050565b5f82601f830112610c24575f5ffd5b8135610c32610bc882610b88565b8082825260208201915060208360051b860101925085831115610c53575f5ffd5b602085015b83811015610c0b57803567ffffffffffffffff811115610c76575f5ffd5b8601603f81018813610c86575f5ffd5b6020810135610c97610bc882610b88565b808282526020820191506020808460051b8601010192508a831115610cba575f5ffd5b604084015b83811015610d5e57803567ffffffffffffffff811115610cdd575f5ffd5b85016020810190605f018d13610cf1575f5ffd5b602081013567ffffffffffffffff811115610d0e57610d0e610b43565b610d21601f8201601f1916602001610b57565b8181526040838301018f1015610d35575f5ffd5b816040840160208301375f60208383010152808652505050602083019250602081019050610cbf565b5086525050602093840193919091019050610c58565b5f82601f830112610d83575f5ffd5b8135610d91610bc882610b88565b8082825260208201915060208360051b860101925085831115610db2575f5ffd5b602085015b83811015610c0b57803567ffffffffffffffff811115610dd5575f5ffd5b610de4886020838a0101610bab565b84525060209283019201610db7565b5f5f5f5f5f5f60c08789031215610e08575f5ffd5b8635955060208701359450604087013567ffffffffffffffff811115610e2c575f5ffd5b610e3889828a01610bab565b945050606087013567ffffffffffffffff811115610e54575f5ffd5b610e6089828a01610c15565b935050608087013567ffffffffffffffff811115610e7c575f5ffd5b610e8889828a01610d74565b92505060a087013567ffffffffffffffff811115610ea4575f5ffd5b610eb089828a01610bab565b9150509295509295509295565b5f60208284031215610ecd575f5ffd5b8151610a08816109d9565b634e487b7160e01b5f52603260045260245ffd5b600181811c90821680610f0057607f821691505b602082108103610f1e57634e487b7160e01b5f52602260045260245ffd5b50919050565b5f60208284031215610f34575f5ffd5b81518015158114610a08575f5ffd5b8082018082111561041857634e487b7160e01b5f52601160045260245ffd5b5f8154808452602084019350825f5260205f205f5b82811015610a5f578154865260209095019460019182019101610f77565b602081525f608082016060602084015280845480835260a08501915060a08160051b8601019250855f5260205f205f5b828110156110e957609f198786030184526080850182548652600183016080602088015281815480845260a08901915060a08160051b8a01019350825f5260205f2092505f5b818110156110ab57609f198a86030183525f845461102881610eec565b808852600182168015611042576001811461105e57611092565b60ff19831660208a0152602082151560051b8a01019350611092565b875f5260205f205f5b838110156110895781546020828d010152600182019150602081019050611067565b8a016020019450505b509196505050600193840193602093909301920161100b565b5050505085810360408701526110c48160028501610f62565b6003840154606097909701969096525060209390930192600490910190600101610fc5565b50505050600184015460408401526002909301546060909201919091525090565b601f82111561115157805f5260205f20601f840160051c8101602085101561112f5750805b601f840160051c820191505b8181101561114e575f815560010161113b565b50505b505050565b815167ffffffffffffffff81111561117057611170610b43565b6111848161117e8454610eec565b8461110a565b6020601f8211600181146111b6575f831561119f5750848201515b5f19600385901b1c1916600184901b17845561114e565b5f84815260208120601f198516915b828110156111e557878501518255602094850194600190920191016111c5565b508482101561120257868401515f19600387901b60f8161c191681555b50505050600190811b0190555056fea2646970667358221220dfbba9f4c56465e688d6fac0a337eae5a9cb2dff4202c12fb8d064549d28ece064736f6c634300081c0033",
  "linkReferences": {},
  "deployedLinkReferences": {},
  "immutableReferences": {},
  "inputSourceName": "project/contracts/PrizesManagement.sol",
  "buildInfoId": "solc-0_8_28-5451076147aa17e4bd92b276abe461110531ee0a"
}