{
  "_format": "hh3-artifact-1",
  "contractName": "ActivitiesManagement",
  "sourceName": "contracts/ActivitiesManagement.sol",
  "abi": [
    {
      "inputs": [
        {
          "internalType": "address",
          "name": "_authorityManagementAddress",
          "type": "address"
        }
      ],
      "stateMutability": "nonpayable",
      "type": "constructor"
    },
    {
      "anonymous": false,
      "inputs": [
        {
          "indexed": true,
          "internalType": "uint256",
          "name": "activityId",
          "type": "uint256"
        },
        {
          "components": [
            {
              "internalType": "string",
              "name": "dataCID",
              "type": "string"
            },
            {
              "internalType": "string",
              "name": "topic",
              "type": "string"
            },
            {
              "internalType": "address",
              "name": "creator",
              "type": "address"
            },
            {
              "internalType": "uint256",
              "name": "maxParticipants",
              "type": "uint256"
            },
            {
              "internalType": "uint256",
              "name": "cuParticipants",
              "type": "uint256"
            },
            {
              "internalType": "uint256",
              "name": "activityId",
              "type": "uint256"
            }
          ],
          "indexed": false,
          "internalType": "struct ActivitiesManagement.Activity",
          "name": "activity",
          "type": "tuple"
        }
      ],
      "name": "ActivityCreated",
      "type": "event"
    },
    {
      "anonymous": false,
      "inputs": [
        {
          "indexed": true,
          "internalType": "uint256",
          "name": "activityId",
          "type": "uint256"
        },
        {
          "indexed": false,
          "internalType": "address",
          "name": "user",
          "type": "address"
        }
      ],
      "name": "ActivityDeleted",
      "type": "event"
    },
    {
      "anonymous": false,
      "inputs": [
        {
          "indexed": true,
          "internalType": "uint256",
          "name": "activityId",
          "type": "uint256"
        },
        {
          "components": [
            {
              "internalType": "string",
              "name": "dataCID",
              "type": "string"
            },
            {
              "internalType": "string",
              "name": "topic",
              "type": "string"
            },
            {
              "internalType": "address",
              "name": "creator",
              "type": "address"
            },
            {
              "internalType": "uint256",
              "name": "maxParticipants",
              "type": "uint256"
            },
            {
              "internalType": "uint256",
              "name": "cuParticipants",
              "type": "uint256"
            },
            {
              "internalType": "uint256",
              "name": "activityId",
              "type": "uint256"
            }
          ],
          "indexed": false,
          "internalType": "struct ActivitiesManagement.Activity",
          "name": "activity",
          "type": "tuple"
        }
      ],
      "name": "ActivityUpdated",
      "type": "event"
    },
    {
      "anonymous": false,
      "inputs": [
        {
          "indexed": true,
          "internalType": "uint256",
          "name": "activityId",
          "type": "uint256"
        },
        {
          "indexed": false,
          "internalType": "address",
          "name": "participant",
          "type": "address"
        }
      ],
      "name": "ParticipantAdded",
      "type": "event"
    },
    {
      "anonymous": false,
      "inputs": [
        {
          "indexed": true,
          "internalType": "uint256",
          "name": "activityId",
          "type": "uint256"
        },
        {
          "indexed": false,
          "internalType": "address",
          "name": "participant",
          "type": "address"
        }
      ],
      "name": "ParticipantRemoved",
      "type": "event"
    },
    {
      "inputs": [
        {
          "internalType": "uint256",
          "name": "",
          "type": "uint256"
        }
      ],
      "name": "activities",
      "outputs": [
        {
          "internalType": "string",
          "name": "dataCID",
          "type": "string"
        },
        {
          "internalType": "string",
          "name": "topic",
          "type": "string"
        },
        {
          "internalType": "address",
          "name": "creator",
          "type": "address"
        },
        {
          "internalType": "uint256",
          "name": "maxParticipants",
          "type": "uint256"
        },
        {
          "internalType": "uint256",
          "name": "cuParticipants",
          "type": "uint256"
        },
        {
          "internalType": "uint256",
          "name": "activityId",
          "type": "uint256"
        }
      ],
      "stateMutability": "view",
      "type": "function"
    },
    {
      "inputs": [],
      "name": "activityCount",
      "outputs": [
        {
          "internalType": "uint256",
          "name": "",
          "type": "uint256"
        }
      ],
      "stateMutability": "view",
      "type": "function"
    },
    {
      "inputs": [
        {
          "internalType": "string",
          "name": "_dataCID",
          "type": "string"
        },
        {
          "internalType": "string",
          "name": "_topic",
          "type": "string"
        },
        {
          "internalType": "uint256",
          "name": "_maxParticipants",
          "type": "uint256"
        },
        {
          "internalType": "uint256",
          "name": "_cuParticipants",
          "type": "uint256"
        }
      ],
      "name": "createActivity",
      "outputs": [],
      "stateMutability": "nonpayable",
      "type": "function"
    },
    {
      "inputs": [
        {
          "internalType": "uint256",
          "name": "_activityId",
          "type": "uint256"
        }
      ],
      "name": "deleteActivity",
      "outputs": [],
      "stateMutability": "nonpayable",
      "type": "function"
    },
    {
      "inputs": [
        {
          "internalType": "uint256",
          "name": "_activityId",
          "type": "uint256"
        }
      ],
      "name": "deleteActivityForAdmin",
      "outputs": [],
      "stateMutability": "nonpayable",
      "type": "function"
    },
    {
      "inputs": [
        {
          "internalType": "uint256",
          "name": "_activityId",
          "type": "uint256"
        }
      ],
      "name": "getActivity",
      "outputs": [
        {
          "components": [
            {
              "internalType": "string",
              "name": "dataCID",
              "type": "string"
            },
            {
              "internalType": "string",
              "name": "topic",
              "type": "string"
            },
            {
              "internalType": "address",
              "name": "creator",
              "type": "address"
            },
            {
              "internalType": "uint256",
              "name": "maxParticipants",
              "type": "uint256"
            },
            {
              "internalType": "uint256",
              "name": "cuParticipants",
              "type": "uint256"
            },
            {
              "internalType": "uint256",
              "name": "activityId",
              "type": "uint256"
            }
          ],
          "internalType": "struct ActivitiesManagement.Activity",
          "name": "",
          "type": "tuple"
        }
      ],
      "stateMutability": "view",
      "type": "function"
    },
    {
      "inputs": [
        {
          "internalType": "uint256",
          "name": "",
          "type": "uint256"
        },
        {
          "internalType": "address",
          "name": "",
          "type": "address"
        }
      ],
      "name": "isParticipant",
      "outputs": [
        {
          "internalType": "bool",
          "name": "",
          "type": "bool"
        }
      ],
      "stateMutability": "view",
      "type": "function"
    },
    {
      "inputs": [
        {
          "internalType": "uint256",
          "name": "_activityId",
          "type": "uint256"
        },
        {
          "internalType": "address",
          "name": "_user",
          "type": "address"
        }
      ],
      "name": "isParticipantInActivity",
      "outputs": [
        {
          "internalType": "bool",
          "name": "",
          "type": "bool"
        }
      ],
      "stateMutability": "view",
      "type": "function"
    },
    {
      "inputs": [
        {
          "internalType": "uint256",
          "name": "_activityId",
          "type": "uint256"
        }
      ],
      "name": "participateInActivity",
      "outputs": [],
      "stateMutability": "nonpayable",
      "type": "function"
    },
    {
      "inputs": [
        {
          "internalType": "uint256",
          "name": "_activityId",
          "type": "uint256"
        },
        {
          "internalType": "string",
          "name": "_dataCID",
          "type": "string"
        },
        {
          "internalType": "string",
          "name": "_topic",
          "type": "string"
        },
        {
          "internalType": "uint256",
          "name": "_maxParticipants",
          "type": "uint256"
        }
      ],
      "name": "updateActivity",
      "outputs": [],
      "stateMutability": "nonpayable",
      "type": "function"
    },
    {
      "inputs": [
        {
          "internalType": "uint256",
          "name": "_activityId",
          "type": "uint256"
        }
      ],
      "name": "withdrawFromActivity",
      "outputs": [],
      "stateMutability": "nonpayable",
      "type": "function"
    }
  ],
  "bytecode": "0x6080604052348015600e575f5ffd5b5060405161163f38038061163f833981016040819052602b91604f565b600180546001600160a01b0319166001600160a01b0392909216919091179055607a565b5f60208284031215605e575f5ffd5b81516001600160a01b03811681146073575f5ffd5b9392505050565b6115b8806100875f395ff3fe608060405234801561000f575f5ffd5b50600436106100a6575f3560e01c8063922635d81161006e578063922635d81461014d578063b4d422c31461016d578063df1bd99f14610180578063e6240deb14610193578063f528baaa146101aa578063f95bc0a2146101bd575f5ffd5b80630b691409146100aa5780630d1657e8146100bf5780634f625354146100ed578063758d9b8914610100578063889dcf691461013a575b5f5ffd5b6100bd6100b8366004610f92565b6101d0565b005b6100d26100cd366004610f92565b6103ef565b6040516100e496959493929190610fd7565b60405180910390f35b6100bd6100fb366004610f92565b610539565b61012a61010e36600461102a565b5f60208181529281526040808220909352908152205460ff1681565b60405190151581526020016100e4565b6100bd610148366004611102565b6106f2565b61016061015b366004610f92565b61087e565b6040516100e49190611177565b6100bd61017b3660046111ec565b610a8f565b6100bd61018e366004610f92565b610c0e565b61019c60035481565b6040519081526020016100e4565b61012a6101b836600461102a565b610de0565b6100bd6101cb366004610f92565b610e37565b600154604051626b5e9b60e61b81523360048201526001600160a01b0390911690631ad7a6c090602401602060405180830381865afa158015610215573d5f5f3e3d5ffd5b505050506040513d601f19601f820116820180604052508101906102399190611260565b1561027d5760405162461bcd60e51b815260206004820152600f60248201526e155cd95c881a5cc8189b1bd8dad959608a1b60448201526064015b60405180910390fd5b5f8111801561028e57506003548111155b6102aa5760405162461bcd60e51b815260040161027490611286565b5f8181526020818152604080832033845290915290205460ff161561031f5760405162461bcd60e51b815260206004820152602560248201527f416c72656164792070617274696369706174656420696e207468697320616374604482015264697669747960d81b6064820152608401610274565b5f8181526002602052604090206003810154600490910154106103775760405162461bcd60e51b815260206004820152601060248201526f1058dd1a5d9a5d1e481a5cc8199d5b1b60821b6044820152606401610274565b5f818152602081815260408083203384528252808320805460ff19166001179055838352600290915281206004018054916103b1836112c7565b909155505060405133815281907f12246ba2398106df92bc0281a1eece14e5b8516c5c3dab76205391650e39fddb906020015b60405180910390a250565b60026020525f9081526040902080548190610409906112df565b80601f0160208091040260200160405190810160405280929190818152602001828054610435906112df565b80156104805780601f1061045757610100808354040283529160200191610480565b820191905f5260205f20905b81548152906001019060200180831161046357829003601f168201915b505050505090806001018054610495906112df565b80601f01602080910402602001604051908101604052809291908181526020018280546104c1906112df565b801561050c5780601f106104e35761010080835404028352916020019161050c565b820191905f5260205f20905b8154815290600101906020018083116104ef57829003601f168201915b5050505060028301546003840154600485015460059095015493946001600160a01b039092169390925086565b600154604051626b5e9b60e61b81523360048201526001600160a01b0390911690631ad7a6c090602401602060405180830381865afa15801561057e573d5f5f3e3d5ffd5b505050506040513d601f19601f820116820180604052508101906105a29190611260565b156105e15760405162461bcd60e51b815260206004820152600f60248201526e155cd95c881a5cc8189b1bd8dad959608a1b6044820152606401610274565b5f811180156105f257506003548111155b61060e5760405162461bcd60e51b815260040161027490611286565b5f8181526020818152604080832033845290915290205460ff1615156001146106845760405162461bcd60e51b815260206004820152602260248201527f4e6f742061207061727469636970616e7420696e207468697320616374697669604482015261747960f01b6064820152608401610274565b5f818152602081815260408083203384528252808320805460ff19169055838352600290915281206004018054916106bb83611317565b909155505060405133815281907fcef8fac05afb87995942422eac900de6af11a555d80d075340af81db492119fe906020016103e4565b60015460405163028a395b60e01b81523360048201526001600160a01b039091169063028a395b90602401602060405180830381865afa158015610738573d5f5f3e3d5ffd5b505050506040513d601f19601f8201168201806040525081019061075c9190611260565b6107785760405162461bcd60e51b81526004016102749061132c565b5f8411801561078957506003548411155b6107a55760405162461bcd60e51b815260040161027490611286565b5f84815260026020819052604090912001546001600160a01b0316331461080e5760405162461bcd60e51b815260206004820152601f60248201527f4e6f74207468652063726561746f72206f6620746865206163746976697479006044820152606401610274565b5f8481526002602052604090208061082685826113a2565b506001810161083584826113a2565b50818160030181905550847f117b317dd0ea76335609f1b1bf5abb5ad67e5861701e0cc4cb11216fadbbc4648260405161086f91906114dc565b60405180910390a25050505050565b6108bc6040518060c0016040528060608152602001606081526020015f6001600160a01b031681526020015f81526020015f81526020015f81525090565b5f821180156108cd57506003548211155b6108e95760405162461bcd60e51b815260040161027490611286565b5f82815260026020819052604090912001546001600160a01b03166109205760405162461bcd60e51b81526004016102749061154b565b5f8281526002602052604090819020815160c08101909252805482908290610947906112df565b80601f0160208091040260200160405190810160405280929190818152602001828054610973906112df565b80156109be5780601f10610995576101008083540402835291602001916109be565b820191905f5260205f20905b8154815290600101906020018083116109a157829003601f168201915b505050505081526020016001820180546109d7906112df565b80601f0160208091040260200160405190810160405280929190818152602001828054610a03906112df565b8015610a4e5780601f10610a2557610100808354040283529160200191610a4e565b820191905f5260205f20905b815481529060010190602001808311610a3157829003601f168201915b505050918352505060028201546001600160a01b03166020820152600382015460408201526004820154606082015260059091015460809091015292915050565b60015460405163028a395b60e01b81523360048201526001600160a01b039091169063028a395b90602401602060405180830381865afa158015610ad5573d5f5f3e3d5ffd5b505050506040513d601f19601f82011682018060405250810190610af99190611260565b610b155760405162461bcd60e51b81526004016102749061132c565b60038054905f610b24836112c7565b90915550506040805160c08101825285815260208082018690523382840152606082018590526080820184905260035460a083018190525f90815260029091529190912081518291908190610b7990826113a2565b5060208201516001820190610b8e90826113a2565b506040820151816002015f6101000a8154816001600160a01b0302191690836001600160a01b03160217905550606082015181600301556080820151816004015560a082015181600501559050506003547fb52437d209d59531d9553c5bb3d8c3b67475a902ef642e47a4a7036a641d7a3e8260405161086f9190611177565b60015460405163028a395b60e01b81523360048201526001600160a01b039091169063028a395b90602401602060405180830381865afa158015610c54573d5f5f3e3d5ffd5b505050506040513d601f19601f82011682018060405250810190610c789190611260565b610c945760405162461bcd60e51b81526004016102749061132c565b5f81118015610ca557506003548111155b610cc15760405162461bcd60e51b815260040161027490611286565b5f81815260026020819052604090912001546001600160a01b0316610cf85760405162461bcd60e51b81526004016102749061154b565b5f81815260026020819052604090912001546001600160a01b03163314610d615760405162461bcd60e51b815260206004820152601f60248201527f4e6f74207468652063726561746f72206f6620746865206163746976697479006044820152606401610274565b5f81815260026020526040812090610d798282610f40565b610d86600183015f610f40565b506002810180546001600160a01b03191690555f600382018190556004820181905560059091015560405133815281907fe941bd7c30e96f6f28d4ad5b33aa783b9af32be576e83724144917c973640911906020016103e4565b5f5f83118015610df257506003548311155b610e0e5760405162461bcd60e51b815260040161027490611286565b505f918252602082815260408084206001600160a01b0393909316845291905290205460ff1690565b600154604051630935e01b60e21b81523360048201526001600160a01b03909116906324d7806c90602401602060405180830381865afa158015610e7d573d5f5f3e3d5ffd5b505050506040513d601f19601f82011682018060405250810190610ea19190611260565b610edc5760405162461bcd60e51b815260206004820152600c60248201526b2737ba1030b71030b236b4b760a11b6044820152606401610274565b5f81118015610eed57506003548111155b610f095760405162461bcd60e51b815260040161027490611286565b5f81815260026020819052604090912001546001600160a01b0316610d615760405162461bcd60e51b81526004016102749061154b565b508054610f4c906112df565b5f825580601f10610f5b575050565b601f0160209004905f5260205f2090810190610f779190610f7a565b50565b5b80821115610f8e575f8155600101610f7b565b5090565b5f60208284031215610fa2575f5ffd5b5035919050565b5f81518084528060208401602086015e5f602082860101526020601f19601f83011685010191505092915050565b60c081525f610fe960c0830189610fa9565b8281036020840152610ffb8189610fa9565b6001600160a01b0397909716604084015250506060810193909352608083019190915260a09091015292915050565b5f5f6040838503121561103b575f5ffd5b8235915060208301356001600160a01b0381168114611058575f5ffd5b809150509250929050565b634e487b7160e01b5f52604160045260245ffd5b5f82601f830112611086575f5ffd5b813567ffffffffffffffff8111156110a0576110a0611063565b604051601f8201601f19908116603f0116810167ffffffffffffffff811182821017156110cf576110cf611063565b6040528181528382016020018510156110e6575f5ffd5b816020850160208301375f918101602001919091529392505050565b5f5f5f5f60808587031215611115575f5ffd5b84359350602085013567ffffffffffffffff811115611132575f5ffd5b61113e87828801611077565b935050604085013567ffffffffffffffff81111561115a575f5ffd5b61116687828801611077565b949793965093946060013593505050565b602081525f825160c0602084015261119260e0840182610fa9565b90506020840151601f198483030160408501526111af8282610fa9565b91505060018060a01b03604085015116606084015260608401516080840152608084015160a084015260a084015160c08401528091505092915050565b5f5f5f5f608085870312156111ff575f5ffd5b843567ffffffffffffffff811115611215575f5ffd5b61122187828801611077565b945050602085013567ffffffffffffffff81111561123d575f5ffd5b61124987828801611077565b949794965050505060408301359260600135919050565b5f60208284031215611270575f5ffd5b8151801515811461127f575f5ffd5b9392505050565b602080825260139082015272125b9d985b1a59081858dd1a5d9a5d1e481251606a1b604082015260600190565b634e487b7160e01b5f52601160045260245ffd5b5f600182016112d8576112d86112b3565b5060010190565b600181811c908216806112f357607f821691505b60208210810361131157634e487b7160e01b5f52602260045260245ffd5b50919050565b5f81611325576113256112b3565b505f190190565b60208082526010908201526f2737ba1030b71037b933b0b734bd32b960811b604082015260600190565b601f82111561139d57805f5260205f20601f840160051c8101602085101561137b5750805b601f840160051c820191505b8181101561139a575f8155600101611387565b50505b505050565b815167ffffffffffffffff8111156113bc576113bc611063565b6113d0816113ca84546112df565b84611356565b6020601f821160018114611402575f83156113eb5750848201515b5f19600385901b1c1916600184901b17845561139a565b5f84815260208120601f198516915b828110156114315787850151825560209485019460019092019101611411565b508482101561144e57868401515f19600387901b60f8161c191681555b50505050600190811b01905550565b5f8154611469816112df565b808552600182168015611483576001811461149f576114d3565b60ff1983166020870152602082151560051b87010193506114d3565b845f5260205f205f5b838110156114ca5781546020828a0101526001820191506020810190506114a8565b87016020019450505b50505092915050565b6020815260c060208201525f6114f560e083018461145d565b828103601f1901604084015261150e816001860161145d565b60028501546001600160a01b0316606085015260038501546080850152600485015460a085015260059094015460c0909301929092525090919050565b60208082526017908201527f416374697669747920646f6573206e6f7420657869737400000000000000000060408201526060019056fea2646970667358221220732715f797844417495cb65c743c2ab5b29e005643972b53e9b2db3c67cb79ff64736f6c634300081c0033",
  "linkReferences": {},
  "deployedLinkReferences": {},
  "immutableReferences": {},
  "inputSourceName": "project/contracts/ActivitiesManagement.sol",
  "buildInfoId": "solc-0_8_28-ad430c975dc6038d3a217db82ae2b8424fff8341"
}