{
  "_format": "hh3-artifact-1",
  "contractName": "DemosJudgement",
  "sourceName": "contracts/DemosJudgement.sol",
  "abi": [
    {
      "inputs": [
        {
          "internalType": "address",
          "name": "_prizesManagementAddress",
          "type": "address"
        },
        {
          "internalType": "address",
          "name": "_judgementManagementAddress",
          "type": "address"
        },
        {
          "internalType": "address",
          "name": "_demosManagementAddress",
          "type": "address"
        },
        {
          "internalType": "address",
          "name": "_activitiesManagementAddress",
          "type": "address"
        },
        {
          "internalType": "address",
          "name": "_authorityManagementAddress",
          "type": "address"
        }
      ],
      "stateMutability": "nonpayable",
      "type": "constructor"
    },
    {
      "anonymous": false,
      "inputs": [
        {
          "indexed": true,
          "internalType": "uint256",
          "name": "activityId",
          "type": "uint256"
        },
        {
          "indexed": true,
          "internalType": "uint256",
          "name": "demoId",
          "type": "uint256"
        },
        {
          "indexed": false,
          "internalType": "uint256",
          "name": "totalScore",
          "type": "uint256"
        },
        {
          "indexed": false,
          "internalType": "uint256",
          "name": "numOfJudges",
          "type": "uint256"
        }
      ],
      "name": "DemoJudged",
      "type": "event"
    },
    {
      "inputs": [
        {
          "internalType": "uint256",
          "name": "_activityId",
          "type": "uint256"
        },
        {
          "internalType": "uint256",
          "name": "_demoId",
          "type": "uint256"
        },
        {
          "internalType": "uint256[]",
          "name": "_pointsOfCriteria",
          "type": "uint256[]"
        }
      ],
      "name": "JudgeDemo",
      "outputs": [],
      "stateMutability": "nonpayable",
      "type": "function"
    },
    {
      "inputs": [
        {
          "internalType": "uint256",
          "name": "",
          "type": "uint256"
        },
        {
          "internalType": "uint256",
          "name": "",
          "type": "uint256"
        }
      ],
      "name": "demoScores",
      "outputs": [
        {
          "internalType": "uint256",
          "name": "totalScore",
          "type": "uint256"
        },
        {
          "internalType": "uint256",
          "name": "numOfJudges",
          "type": "uint256"
        }
      ],
      "stateMutability": "view",
      "type": "function"
    },
    {
      "inputs": [
        {
          "internalType": "address",
          "name": "",
          "type": "address"
        },
        {
          "internalType": "uint256",
          "name": "",
          "type": "uint256"
        },
        {
          "internalType": "uint256",
          "name": "",
          "type": "uint256"
        }
      ],
      "name": "hasJudged",
      "outputs": [
        {
          "internalType": "bool",
          "name": "",
          "type": "bool"
        }
      ],
      "stateMutability": "view",
      "type": "function"
    },
    {
      "inputs": [
        {
          "internalType": "address",
          "name": "_prizesManagementAddress",
          "type": "address"
        },
        {
          "internalType": "address",
          "name": "_judgementManagementAddress",
          "type": "address"
        },
        {
          "internalType": "address",
          "name": "_demosManagementAddress",
          "type": "address"
        },
        {
          "internalType": "address",
          "name": "_activitiesManagementAddress",
          "type": "address"
        }
      ],
      "name": "updateDependencies",
      "outputs": [],
      "stateMutability": "nonpayable",
      "type": "function"
    }
  ],
  "bytecode": "0x608060405234801561000f575f5ffd5b50604051610d38380380610d3883398101604081905261002e916100aa565b5f80546001600160a01b03199081166001600160a01b0397881617909155600180548216958716959095179094556002805485169386169390931790925560038054841691851691909117905560048054909216921691909117905561010b565b80516001600160a01b03811681146100a5575f5ffd5b919050565b5f5f5f5f5f60a086880312156100be575f5ffd5b6100c78661008f565b94506100d56020870161008f565b93506100e36040870161008f565b92506100f16060870161008f565b91506100ff6080870161008f565b90509295509295909350565b610c20806101185f395ff3fe608060405234801561000f575f5ffd5b506004361061004a575f3560e01c8063264fc8be1461004e5780638b200efe146100965780638d001863146100dc578063c8f649a3146100f1575b5f5ffd5b61008161005c366004610791565b600660209081525f938452604080852082529284528284209052825290205460ff1681565b60405190151581526020015b60405180910390f35b6100c76100a43660046107c3565b600560209081525f92835260408084209091529082529020805460019091015482565b6040805192835260208301919091520161008d565b6100ef6100ea3660046107e3565b610104565b005b6100ef6100ff3660046108cd565b610211565b6004805460408051631127a41d60e31b815290516001600160a01b039092169263893d20e89282820192602092908290030181865afa158015610149573d5f5f3e3d5ffd5b505050506040513d601f19601f8201168201806040525081019061016d9190610977565b6001600160a01b0316336001600160a01b0316146101c25760405162461bcd60e51b815260206004820152600d60248201526c2737ba103a34329037bbb732b960991b60448201526064015b60405180910390fd5b5f80546001600160a01b039586166001600160a01b0319918216179091556001805494861694821694909417909355600280549285169284169290921790915560038054919093169116179055565b600154604051634f7304e560e01b81526004810185905233602482015284916001600160a01b031690634f7304e590604401602060405180830381865afa15801561025e573d5f5f3e3d5ffd5b505050506040513d601f19601f820116820180604052508101906102829190610999565b6102ce5760405162461bcd60e51b815260206004820152601e60248201527f4e6f7420746865206a75646765206f662074686973206163746976697479000060448201526064016101b9565b600354604051630335182160e31b81526004810186905285916001600160a01b0316906319a8c10890602401602060405180830381865afa158015610315573d5f5f3e3d5ffd5b505050506040513d601f19601f820116820180604052508101906103399190610999565b61037b5760405162461bcd60e51b8152602060048201526013602482015272125b9d985b1a59081858dd1a5d9a5d1e481251606a1b60448201526064016101b9565b600354604051633490fea560e01b8152600481018390526001600160a01b0390911690633490fea590602401602060405180830381865afa1580156103c2573d5f5f3e3d5ffd5b505050506040513d601f19601f820116820180604052508101906103e69190610999565b61042a5760405162461bcd60e51b81526020600482015260156024820152744e6f7420696e206a756467656d656e742074696d6560581b60448201526064016101b9565b335f908152600660209081526040808320888452825280832087845290915290205460ff161561049c5760405162461bcd60e51b815260206004820152601860248201527f416c7265616479206a756467656420746869732064656d6f000000000000000060448201526064016101b9565b6002546040516387c8e95160e01b815260048101879052602481018690525f916001600160a01b0316906387c8e95190604401602060405180830381865afa1580156104ea573d5f5f3e3d5ffd5b505050506040513d601f19601f8201168201806040525081019061050e91906109b8565b5f8054604051635a31d7fd60e11b8152600481018a90526024810184905292935090916001600160a01b039091169063b463affa906044015f60405180830381865afa158015610560573d5f5f3e3d5ffd5b505050506040513d5f823e601f3d908101601f191682016040526105879190810190610a34565b9050610597816040015186610707565b6105e35760405162461bcd60e51b815260206004820152601a60248201527f496e76616c696420706f696e7473206f6620637269746572696100000000000060448201526064016101b9565b5f805b865181101561061e5786818151811061060157610601610bb7565b6020026020010151826106149190610bcb565b91506001016105e6565b505f8881526005602090815260408083208a845290915281208054839290610647908490610bcb565b90915550505f8881526005602090815260408083208a84529091528120600190810180549192909161067a908490610bcb565b9091555050335f9081526006602090815260408083208b845282528083208a84528252808320805460ff191660019081179091558b8452600583528184208b85528352928190209092015482518481529182015288918a917fcd0844172ffa18ac4e8ac2e9e06188818f3941a1fd671b6bc4171a69c4fd0ecb910160405180910390a35050505050505050565b5f815183511461071857505f610774565b5f5b835181101561076e5783818151811061073557610735610bb7565b602002602001015183828151811061074f5761074f610bb7565b60200260200101511115610766575f915050610774565b60010161071a565b50600190505b92915050565b6001600160a01b038116811461078e575f5ffd5b50565b5f5f5f606084860312156107a3575f5ffd5b83356107ae8161077a565b95602085013595506040909401359392505050565b5f5f604083850312156107d4575f5ffd5b50508035926020909101359150565b5f5f5f5f608085870312156107f6575f5ffd5b84356108018161077a565b935060208501356108118161077a565b925060408501356108218161077a565b915060608501356108318161077a565b939692955090935050565b634e487b7160e01b5f52604160045260245ffd5b6040516080810167ffffffffffffffff811182821017156108735761087361083c565b60405290565b604051601f8201601f1916810167ffffffffffffffff811182821017156108a2576108a261083c565b604052919050565b5f67ffffffffffffffff8211156108c3576108c361083c565b5060051b60200190565b5f5f5f606084860312156108df575f5ffd5b8335925060208401359150604084013567ffffffffffffffff811115610903575f5ffd5b8401601f81018613610913575f5ffd5b8035610926610921826108aa565b610879565b8082825260208201915060208360051b850101925088831115610947575f5ffd5b6020840193505b8284101561096957833582526020938401939091019061094e565b809450505050509250925092565b5f60208284031215610987575f5ffd5b81516109928161077a565b9392505050565b5f602082840312156109a9575f5ffd5b81518015158114610992575f5ffd5b5f602082840312156109c8575f5ffd5b5051919050565b5f82601f8301126109de575f5ffd5b81516109ec610921826108aa565b8082825260208201915060208360051b860101925085831115610a0d575f5ffd5b602085015b83811015610a2a578051835260209283019201610a12565b5095945050505050565b5f60208284031215610a44575f5ffd5b815167ffffffffffffffff811115610a5a575f5ffd5b820160808185031215610a6b575f5ffd5b610a73610850565b81518152602082015167ffffffffffffffff811115610a90575f5ffd5b8201601f81018613610aa0575f5ffd5b8051610aae610921826108aa565b8082825260208201915060208360051b850101925088831115610acf575f5ffd5b602084015b83811015610b6f57805167ffffffffffffffff811115610af2575f5ffd5b8501603f81018b13610b02575f5ffd5b602081015167ffffffffffffffff811115610b1f57610b1f61083c565b610b32601f8201601f1916602001610879565b8181526040838301018d1015610b46575f5ffd5b8160408401602083015e5f60208383010152808652505050602083019250602081019050610ad4565b506020850152505050604082015167ffffffffffffffff811115610b91575f5ffd5b610b9d868285016109cf565b604083015250606091820151918101919091529392505050565b634e487b7160e01b5f52603260045260245ffd5b8082018082111561077457634e487b7160e01b5f52601160045260245ffdfea2646970667358221220e407ebea37cf3fc3e3c07a55431e8b80b7e52d0f31dbf3175db3004ca8faf36764736f6c634300081c0033",
  "linkReferences": {},
  "deployedLinkReferences": {},
  "immutableReferences": {},
  "inputSourceName": "project/contracts/DemosJudgement.sol",
  "buildInfoId": "solc-0_8_28-140796064582e156cea21e70b16f17eb7854ff7b"
}