{
  "_format": "hh3-artifact-1",
  "contractName": "JudgementManagement",
  "sourceName": "contracts/JudgementManagement.sol",
  "abi": [
    {
      "inputs": [
        {
          "internalType": "address",
          "name": "_activitiesManagementAddress",
          "type": "address"
        },
        {
          "internalType": "address",
          "name": "_authorityManagementAddress",
          "type": "address"
        }
      ],
      "stateMutability": "nonpayable",
      "type": "constructor"
    },
    {
      "inputs": [
        {
          "internalType": "uint256",
          "name": "_activityId",
          "type": "uint256"
        },
        {
          "internalType": "string",
          "name": "_judgeName",
          "type": "string"
        }
      ],
      "name": "createJudgeInvitation",
      "outputs": [
        {
          "internalType": "bytes32",
          "name": "invitationCode",
          "type": "bytes32"
        }
      ],
      "stateMutability": "nonpayable",
      "type": "function"
    },
    {
      "inputs": [
        {
          "internalType": "uint256",
          "name": "",
          "type": "uint256"
        },
        {
          "internalType": "address",
          "name": "",
          "type": "address"
        }
      ],
      "name": "isJudge",
      "outputs": [
        {
          "internalType": "bool",
          "name": "",
          "type": "bool"
        }
      ],
      "stateMutability": "view",
      "type": "function"
    },
    {
      "inputs": [
        {
          "internalType": "uint256",
          "name": "_activityId",
          "type": "uint256"
        },
        {
          "internalType": "address",
          "name": "_judge",
          "type": "address"
        }
      ],
      "name": "isJudgeInActivity",
      "outputs": [
        {
          "internalType": "bool",
          "name": "",
          "type": "bool"
        }
      ],
      "stateMutability": "view",
      "type": "function"
    },
    {
      "inputs": [
        {
          "internalType": "uint256",
          "name": "number",
          "type": "uint256"
        }
      ],
      "name": "random",
      "outputs": [
        {
          "internalType": "uint256",
          "name": "",
          "type": "uint256"
        }
      ],
      "stateMutability": "view",
      "type": "function"
    },
    {
      "inputs": [
        {
          "internalType": "uint256",
          "name": "_activityId",
          "type": "uint256"
        },
        {
          "internalType": "bytes32",
          "name": "_invitationCode",
          "type": "bytes32"
        }
      ],
      "name": "registerAsJudge",
      "outputs": [
        {
          "internalType": "bool",
          "name": "",
          "type": "bool"
        }
      ],
      "stateMutability": "nonpayable",
      "type": "function"
    },
    {
      "inputs": [
        {
          "internalType": "address",
          "name": "_newActivitiesManagementAddress",
          "type": "address"
        }
      ],
      "name": "updateDependencies",
      "outputs": [],
      "stateMutability": "nonpayable",
      "type": "function"
    }
  ],
  "bytecode": "0x6080604052348015600e575f5ffd5b506040516106ff3803806106ff833981016040819052602b916077565b600180546001600160a01b039283166001600160a01b0319918216179091555f805493909216921691909117905560a3565b80516001600160a01b03811681146072575f5ffd5b919050565b5f5f604083850312156087575f5ffd5b608e83605d565b9150609a60208401605d565b90509250929050565b61064f806100b05f395ff3fe608060405234801561000f575f5ffd5b5060043610610060575f3560e01c8063086dbb1b14610064578063375bbce11461008a5780633d0f067c146100ad5780634f7304e5146100c2578063a25232f5146100fa578063b863bd3714610127575b5f5ffd5b610077610072366004610425565b61013a565b6040519081526020015b60405180910390f35b61009d6100983660046104e2565b61027b565b6040519015158152602001610081565b6100c06100bb366004610519565b6102d0565b005b61009d6100d036600461053b565b5f9182526003602090815260408084206001600160a01b0393909316845291905290205460ff1690565b61009d61010836600461053b565b600360209081525f928352604080842090915290825290205460ff1681565b610077610135366004610569565b6103b5565b5f805460405163c22e165d60e01b815260048101859052849183916001600160a01b039091169063c22e165d90602401602060405180830381865afa158015610185573d5f5f3e3d5ffd5b505050506040513d601f19601f820116820180604052508101906101a99190610580565b9050336001600160a01b038216146102135760405162461bcd60e51b815260206004820152602260248201527f4e6f7420746865206f7267616e697a6572206f66207468697320616374697669604482015261747960f01b60648201526084015b60405180910390fd5b5f610223610135876103e861059b565b905080853360405160200161023a939291906105be565b60408051601f1981840301815291815281516020928301205f898152600284528281208282529093529120805460ff19166001179055935050505092915050565b5f82815260026020908152604080832084845290915281205460ff166102a257505f6102ca565b505f8281526003602090815260408083203384529091529020805460ff191660019081179091555b92915050565b60015f9054906101000a90046001600160a01b03166001600160a01b031663893d20e86040518163ffffffff1660e01b8152600401602060405180830381865afa158015610320573d5f5f3e3d5ffd5b505050506040513d601f19601f820116820180604052508101906103449190610580565b6001600160a01b0316336001600160a01b0316146103945760405162461bcd60e51b815260206004820152600d60248201526c2737ba103a34329037bbb732b960991b604482015260640161020a565b5f80546001600160a01b0319166001600160a01b0392909216919091179055565b5f814244336040516020016103ef93929190928352602083019190915260601b6bffffffffffffffffffffffff1916604082015260540190565b604051602081830303815290604052805190602001205f1c6102ca91906105fa565b634e487b7160e01b5f52604160045260245ffd5b5f5f60408385031215610436575f5ffd5b82359150602083013567ffffffffffffffff811115610453575f5ffd5b8301601f81018513610463575f5ffd5b803567ffffffffffffffff81111561047d5761047d610411565b604051601f8201601f19908116603f0116810167ffffffffffffffff811182821017156104ac576104ac610411565b6040528181528282016020018710156104c3575f5ffd5b816020840160208301375f602083830101528093505050509250929050565b5f5f604083850312156104f3575f5ffd5b50508035926020909101359150565b6001600160a01b0381168114610516575f5ffd5b50565b5f60208284031215610529575f5ffd5b813561053481610502565b9392505050565b5f5f6040838503121561054c575f5ffd5b82359150602083013561055e81610502565b809150509250929050565b5f60208284031215610579575f5ffd5b5035919050565b5f60208284031215610590575f5ffd5b815161053481610502565b80820281158282048414176102ca57634e487b7160e01b5f52601160045260245ffd5b8381525f83518060208601602085015e60609390931b6bffffffffffffffffffffffff1916602092909301918201929092526034019392505050565b5f8261061457634e487b7160e01b5f52601260045260245ffd5b50069056fea26469706673582212206e3243b3d72deb911fff9d76c8e9e05b034e7a56ee26b71b0006b71d35e0688064736f6c634300081c0033",
  "linkReferences": {},
  "deployedLinkReferences": {},
  "immutableReferences": {},
  "inputSourceName": "project/contracts/JudgementManagement.sol",
  "buildInfoId": "solc-0_8_28-af5d17f4b9b12e3a08655a918c5ebc15f8cfd756"
}