{
  "_format": "hh3-artifact-1",
  "contractName": "AuthorityManagement",
  "sourceName": "contracts/AuthorityManagement.sol",
  "abi": [
    {
      "inputs": [],
      "stateMutability": "nonpayable",
      "type": "constructor"
    },
    {
      "anonymous": false,
      "inputs": [
        {
          "indexed": true,
          "internalType": "address",
          "name": "admin",
          "type": "address"
        }
      ],
      "name": "AdminAdded",
      "type": "event"
    },
    {
      "anonymous": false,
      "inputs": [
        {
          "indexed": true,
          "internalType": "address",
          "name": "admin",
          "type": "address"
        }
      ],
      "name": "AdminRemoved",
      "type": "event"
    },
    {
      "anonymous": false,
      "inputs": [
        {
          "indexed": true,
          "internalType": "address",
          "name": "user",
          "type": "address"
        }
      ],
      "name": "UserBlocked",
      "type": "event"
    },
    {
      "anonymous": false,
      "inputs": [
        {
          "indexed": true,
          "internalType": "address",
          "name": "user",
          "type": "address"
        }
      ],
      "name": "UserUnblocked",
      "type": "event"
    },
    {
      "inputs": [
        {
          "internalType": "address",
          "name": "_admin",
          "type": "address"
        }
      ],
      "name": "addAdmin",
      "outputs": [],
      "stateMutability": "nonpayable",
      "type": "function"
    },
    {
      "inputs": [
        {
          "internalType": "address",
          "name": "_organizer",
          "type": "address"
        }
      ],
      "name": "addOrganizer",
      "outputs": [],
      "stateMutability": "nonpayable",
      "type": "function"
    },
    {
      "inputs": [
        {
          "internalType": "address",
          "name": "_user",
          "type": "address"
        }
      ],
      "name": "blockUser",
      "outputs": [],
      "stateMutability": "nonpayable",
      "type": "function"
    },
    {
      "inputs": [
        {
          "internalType": "address",
          "name": "_admin",
          "type": "address"
        }
      ],
      "name": "isAdmin",
      "outputs": [
        {
          "internalType": "bool",
          "name": "",
          "type": "bool"
        }
      ],
      "stateMutability": "view",
      "type": "function"
    },
    {
      "inputs": [
        {
          "internalType": "address",
          "name": "_organizer",
          "type": "address"
        }
      ],
      "name": "isAnOrganizer",
      "outputs": [
        {
          "internalType": "bool",
          "name": "",
          "type": "bool"
        }
      ],
      "stateMutability": "view",
      "type": "function"
    },
    {
      "inputs": [
        {
          "internalType": "address",
          "name": "_user",
          "type": "address"
        }
      ],
      "name": "isBlockedUser",
      "outputs": [
        {
          "internalType": "bool",
          "name": "",
          "type": "bool"
        }
      ],
      "stateMutability": "view",
      "type": "function"
    },
    {
      "inputs": [],
      "name": "owner",
      "outputs": [
        {
          "internalType": "address",
          "name": "",
          "type": "address"
        }
      ],
      "stateMutability": "view",
      "type": "function"
    },
    {
      "inputs": [
        {
          "internalType": "address",
          "name": "_admin",
          "type": "address"
        }
      ],
      "name": "removeAdmin",
      "outputs": [],
      "stateMutability": "nonpayable",
      "type": "function"
    },
    {
      "inputs": [
        {
          "internalType": "address",
          "name": "_organizer",
          "type": "address"
        }
      ],
      "name": "removeOrganizer",
      "outputs": [],
      "stateMutability": "nonpayable",
      "type": "function"
    },
    {
      "inputs": [
        {
          "internalType": "address",
          "name": "_user",
          "type": "address"
        }
      ],
      "name": "unblockUser",
      "outputs": [],
      "stateMutability": "nonpayable",
      "type": "function"
    }
  ],
  "bytecode": "0x6080604052348015600e575f5ffd5b505f80546001600160a01b0319163390811782558152600160208190526040909120805460ff19169091179055610518806100485f395ff3fe608060405234801561000f575f5ffd5b506004361061009b575f3560e01c80633da01325116100635780633da013251461015d57806344ade56d1461017057806370480275146101835780638da5cb5b14610196578063e4725f02146101c0575f5ffd5b8063028a395b1461009f5780631785f53c146100df5780631ad7a6c0146100f457806324d7806c1461011f57806339d319e51461014a575b5f5ffd5b6100ca6100ad36600461048e565b6001600160a01b03165f9081526003602052604090205460ff1690565b60405190151581526020015b60405180910390f35b6100f26100ed36600461048e565b6101d3565b005b6100ca61010236600461048e565b6001600160a01b03165f9081526002602052604090205460ff1690565b6100ca61012d36600461048e565b6001600160a01b03165f9081526001602052604090205460ff1690565b6100f261015836600461048e565b610269565b6100f261016b36600461048e565b6102df565b6100f261017e36600461048e565b610358565b6100f261019136600461048e565b6103a6565b5f546101a8906001600160a01b031681565b6040516001600160a01b0390911681526020016100d6565b6100f26101ce36600461048e565b61043d565b5f546001600160a01b031633146102215760405162461bcd60e51b815260206004820152600d60248201526c2737ba103a34329037bbb732b960991b60448201526064015b60405180910390fd5b6001600160a01b0381165f81815260016020526040808220805460ff19169055517fa3b62bc36326052d97ea62d63c3d60308ed4c3ea8ac079dd8499f1e9c4f80c0f9190a250565b335f9081526001602052604090205460ff166102975760405162461bcd60e51b8152600401610218906104bb565b6001600160a01b0381165f81815260026020526040808220805460ff19169055517f798117ec059ab8d319461ef2502b1f9d8a47cd966bfd1f3e23b6f26c30bebb779190a250565b335f9081526001602052604090205460ff1661030d5760405162461bcd60e51b8152600401610218906104bb565b6001600160a01b0381165f81815260026020526040808220805460ff19166001179055517fca86d8c91ca6d00afd863578cc633a0901fad724592f89649629fe65f61410d29190a250565b335f9081526001602052604090205460ff166103865760405162461bcd60e51b8152600401610218906104bb565b6001600160a01b03165f908152600360205260409020805460ff19169055565b5f546001600160a01b031633146103ef5760405162461bcd60e51b815260206004820152600d60248201526c2737ba103a34329037bbb732b960991b6044820152606401610218565b6001600160a01b0381165f818152600160208190526040808320805460ff1916909217909155517f44d6d25963f097ad14f29f06854a01f575648a1ef82f30e562ccd3889717e3399190a250565b335f9081526001602052604090205460ff1661046b5760405162461bcd60e51b8152600401610218906104bb565b6001600160a01b03165f908152600360205260409020805460ff19166001179055565b5f6020828403121561049e575f5ffd5b81356001600160a01b03811681146104b4575f5ffd5b9392505050565b6020808252600d908201526c2737ba103a34329030b236b4b760991b60408201526060019056fea26469706673582212206bc64acd43ed877a10a3c1b7b37f1b399d15973b0126b9894dc2dce7c2e7afda64736f6c634300081c0033",
  "linkReferences": {},
  "deployedLinkReferences": {},
  "immutableReferences": {},
  "inputSourceName": "project/contracts/AuthorityManagement.sol",
  "buildInfoId": "solc-0_8_28-0f1a506a07e387af1fc07d1309dfb001c1364026"
}