{
  "_format": "hh3-artifact-1",
  "contractName": "DemosManagement",
  "sourceName": "contracts/DemosManagement.sol",
  "abi": [
    {
      "inputs": [
        {
          "internalType": "address",
          "name": "_activitiesManagementAddress",
          "type": "address"
        },
        {
          "internalType": "address",
          "name": "_judgementManagementAddress",
          "type": "address"
        },
        {
          "internalType": "address",
          "name": "_authorityManagementAddress",
          "type": "address"
        }
      ],
      "stateMutability": "nonpayable",
      "type": "constructor"
    },
    {
      "anonymous": false,
      "inputs": [
        {
          "indexed": true,
          "internalType": "uint256",
          "name": "activityId",
          "type": "uint256"
        },
        {
          "components": [
            {
              "internalType": "uint256",
              "name": "demoId",
              "type": "uint256"
            },
            {
              "internalType": "uint256",
              "name": "activityId",
              "type": "uint256"
            },
            {
              "internalType": "uint256",
              "name": "cohortId",
              "type": "uint256"
            },
            {
              "internalType": "string",
              "name": "dataCID",
              "type": "string"
            },
            {
              "internalType": "string",
              "name": "vedioCID",
              "type": "string"
            },
            {
              "internalType": "address",
              "name": "submitter",
              "type": "address"
            }
          ],
          "indexed": false,
          "internalType": "struct IDemosManagement.Demo",
          "name": "demo",
          "type": "tuple"
        }
      ],
      "name": "DemoSubmitted",
      "type": "event"
    },
    {
      "anonymous": false,
      "inputs": [
        {
          "indexed": true,
          "internalType": "uint256",
          "name": "activityId",
          "type": "uint256"
        },
        {
          "components": [
            {
              "internalType": "uint256",
              "name": "demoId",
              "type": "uint256"
            },
            {
              "internalType": "uint256",
              "name": "activityId",
              "type": "uint256"
            },
            {
              "internalType": "uint256",
              "name": "cohortId",
              "type": "uint256"
            },
            {
              "internalType": "string",
              "name": "dataCID",
              "type": "string"
            },
            {
              "internalType": "string",
              "name": "vedioCID",
              "type": "string"
            },
            {
              "internalType": "address",
              "name": "submitter",
              "type": "address"
            }
          ],
          "indexed": false,
          "internalType": "struct IDemosManagement.Demo",
          "name": "demo",
          "type": "tuple"
        }
      ],
      "name": "DemoUpdated",
      "type": "event"
    },
    {
      "inputs": [
        {
          "internalType": "uint256",
          "name": "",
          "type": "uint256"
        },
        {
          "internalType": "uint256",
          "name": "",
          "type": "uint256"
        }
      ],
      "name": "demos",
      "outputs": [
        {
          "internalType": "uint256",
          "name": "demoId",
          "type": "uint256"
        },
        {
          "internalType": "uint256",
          "name": "activityId",
          "type": "uint256"
        },
        {
          "internalType": "uint256",
          "name": "cohortId",
          "type": "uint256"
        },
        {
          "internalType": "string",
          "name": "dataCID",
          "type": "string"
        },
        {
          "internalType": "string",
          "name": "vedioCID",
          "type": "string"
        },
        {
          "internalType": "address",
          "name": "submitter",
          "type": "address"
        }
      ],
      "stateMutability": "view",
      "type": "function"
    },
    {
      "inputs": [
        {
          "internalType": "uint256",
          "name": "_activityId",
          "type": "uint256"
        },
        {
          "internalType": "uint256",
          "name": "_demoId",
          "type": "uint256"
        }
      ],
      "name": "getDemoCohortId",
      "outputs": [
        {
          "internalType": "uint256",
          "name": "",
          "type": "uint256"
        }
      ],
      "stateMutability": "view",
      "type": "function"
    },
    {
      "inputs": [
        {
          "internalType": "uint256",
          "name": "_activityId",
          "type": "uint256"
        },
        {
          "internalType": "uint256",
          "name": "_cohortId",
          "type": "uint256"
        },
        {
          "internalType": "string",
          "name": "_dataCID",
          "type": "string"
        },
        {
          "internalType": "string",
          "name": "_vedioCID",
          "type": "string"
        }
      ],
      "name": "submitDemo",
      "outputs": [],
      "stateMutability": "nonpayable",
      "type": "function"
    },
    {
      "inputs": [
        {
          "internalType": "address",
          "name": "_activitiesManagementAddress",
          "type": "address"
        },
        {
          "internalType": "address",
          "name": "_judgementManagementAddress",
          "type": "address"
        }
      ],
      "name": "updateDependencies",
      "outputs": [],
      "stateMutability": "nonpayable",
      "type": "function"
    }
  ],
  "bytecode": "0x6080604052348015600e575f5ffd5b50604051610c88380380610c88833981016040819052602b916085565b600180546001600160a01b039485166001600160a01b0319918216179091555f8054938516938216939093179092556002805491909316911617905560be565b80516001600160a01b03811681146080575f5ffd5b919050565b5f5f5f606084860312156096575f5ffd5b609d84606b565b925060a960208501606b565b915060b560408501606b565b90509250925092565b610bbd806100cb5f395ff3fe608060405234801561000f575f5ffd5b506004361061004a575f3560e01c80632956e5d81461004e57806387c8e95114610063578063957ffcc114610089578063ebaefd6e146100ae575b5f5ffd5b61006161005c366004610816565b6100c1565b005b61007661007136600461088d565b6103ec565b6040519081526020015b60405180910390f35b61009c61009736600461088d565b61051f565b604051610080969594939291906108db565b6100616100bc366004610944565b610686565b600154604051630335182160e31b81526004810186905285916001600160a01b0316906319a8c10890602401602060405180830381865afa158015610108573d5f5f3e3d5ffd5b505050506040513d601f19601f8201168201806040525081019061012c919061097b565b6101735760405162461bcd60e51b8152602060048201526013602482015272125b9d985b1a59081858dd1a5d9a5d1e481251606a1b60448201526064015b60405180910390fd5b600154604051630257dae560e01b8152600481018390526001600160a01b0390911690630257dae590602401602060405180830381865afa1580156101ba573d5f5f3e3d5ffd5b505050506040513d601f19601f820116820180604052508101906101de919061097b565b6102215760405162461bcd60e51b81526020600482015260146024820152734e6f7420696e206861636b74686f6e2074696d6560601b604482015260640161016a565b600154604051637a945d5560e11b8152600481018790523360248201526001600160a01b039091169063f528baaa90604401602060405180830381865afa15801561026e573d5f5f3e3d5ffd5b505050506040513d601f19601f82011682018060405250810190610292919061097b565b6102e95760405162461bcd60e51b815260206004820152602260248201527f4e6f742061207061727469636970616e74206f66207468697320616374697669604482015261747960f01b606482015260840161016a565b5f8581526003602081815260408084208054825160c0810184528181528085018c81529381018b8152606082018b8152608083018b90523360a0840152878752600180850186559489529590972081516006840290910190815593519284019290925594516002830155915191928392908201906103679082610a25565b506080820151600482019061037c9082610a25565b5060a0820151816005015f6101000a8154816001600160a01b0302191690836001600160a01b031602179055505050867fe917095f7b5d460967372cc183de40ef4aeb042eb3b1942d6f79eb9297b7dd0e826040516103db9190610ae0565b60405180910390a250505050505050565b5f8281526003602052604081205482111561043b5760405162461bcd60e51b815260206004820152600f60248201526e125b9d985b1a590819195b5bc81251608a1b604482015260640161016a565b600154604051630335182160e31b8152600481018590526001600160a01b03909116906319a8c10890602401602060405180830381865afa158015610482573d5f5f3e3d5ffd5b505050506040513d601f19601f820116820180604052508101906104a6919061097b565b6104e85760405162461bcd60e51b8152602060048201526013602482015272125b9d985b1a59081858dd1a5d9a5d1e481251606a1b604482015260640161016a565b5f83815260036020526040902080548390811061050757610507610b58565b905f5260205f20906006020160020154905092915050565b6003602052815f5260405f208181548110610538575f80fd5b905f5260205f2090600602015f9150915050805f01549080600101549080600201549080600301805461056a906109a1565b80601f0160208091040260200160405190810160405280929190818152602001828054610596906109a1565b80156105e15780601f106105b8576101008083540402835291602001916105e1565b820191905f5260205f20905b8154815290600101906020018083116105c457829003601f168201915b5050505050908060040180546105f6906109a1565b80601f0160208091040260200160405190810160405280929190818152602001828054610622906109a1565b801561066d5780601f106106445761010080835404028352916020019161066d565b820191905f5260205f20905b81548152906001019060200180831161065057829003601f168201915b505050600590930154919250506001600160a01b031686565b60025f9054906101000a90046001600160a01b03166001600160a01b031663893d20e86040518163ffffffff1660e01b8152600401602060405180830381865afa1580156106d6573d5f5f3e3d5ffd5b505050506040513d601f19601f820116820180604052508101906106fa9190610b6c565b6001600160a01b0316336001600160a01b03161461074a5760405162461bcd60e51b815260206004820152600d60248201526c2737ba103a34329037bbb732b960991b604482015260640161016a565b600180546001600160a01b039384166001600160a01b0319918216179091555f8054929093169116179055565b634e487b7160e01b5f52604160045260245ffd5b5f82601f83011261079a575f5ffd5b813567ffffffffffffffff8111156107b4576107b4610777565b604051601f8201601f19908116603f0116810167ffffffffffffffff811182821017156107e3576107e3610777565b6040528181528382016020018510156107fa575f5ffd5b816020850160208301375f918101602001919091529392505050565b5f5f5f5f60808587031215610829575f5ffd5b8435935060208501359250604085013567ffffffffffffffff81111561084d575f5ffd5b6108598782880161078b565b925050606085013567ffffffffffffffff811115610875575f5ffd5b6108818782880161078b565b91505092959194509250565b5f5f6040838503121561089e575f5ffd5b50508035926020909101359150565b5f81518084528060208401602086015e5f602082860101526020601f19601f83011685010191505092915050565b86815285602082015284604082015260c060608201525f6108ff60c08301866108ad565b828103608084015261091181866108ad565b91505060018060a01b03831660a0830152979650505050505050565b6001600160a01b0381168114610941575f5ffd5b50565b5f5f60408385031215610955575f5ffd5b82356109608161092d565b915060208301356109708161092d565b809150509250929050565b5f6020828403121561098b575f5ffd5b8151801515811461099a575f5ffd5b9392505050565b600181811c908216806109b557607f821691505b6020821081036109d357634e487b7160e01b5f52602260045260245ffd5b50919050565b601f821115610a2057805f5260205f20601f840160051c810160208510156109fe5750805b601f840160051c820191505b81811015610a1d575f8155600101610a0a565b50505b505050565b815167ffffffffffffffff811115610a3f57610a3f610777565b610a5381610a4d84546109a1565b846109d9565b6020601f821160018114610a85575f8315610a6e5750848201515b5f19600385901b1c1916600184901b178455610a1d565b5f84815260208120601f198516915b82811015610ab45787850151825560209485019460019092019101610a94565b5084821015610ad157868401515f19600387901b60f8161c191681555b50505050600190811b01905550565b602081528151602082015260208201516040820152604082015160608201525f606083015160c06080840152610b1960e08401826108ad565b90506080840151601f198483030160a0850152610b3682826108ad565b60a095909501516001600160a01b031660c09490940193909352509192915050565b634e487b7160e01b5f52603260045260245ffd5b5f60208284031215610b7c575f5ffd5b815161099a8161092d56fea26469706673582212207f78200147b1cbbef6042d6ef207c5fa2d6b5695b662b43e6b3b110f6acb586f64736f6c634300081c0033",
  "linkReferences": {},
  "deployedLinkReferences": {},
  "immutableReferences": {},
  "inputSourceName": "project/contracts/DemosManagement.sol",
  "buildInfoId": "solc-0_8_28-320877c0d3df5ad3ff80f2101748f909b904bf8c"
}