{
  "_format": "hh3-artifact-1",
  "contractName": "JudgementManagement",
  "sourceName": "contracts/JudgementManagement.sol",
  "abi": [
    {
      "inputs": [
        {
          "internalType": "address",
          "name": "_activitiesManagementAddress",
          "type": "address"
        },
        {
          "internalType": "address",
          "name": "_authorityManagementAddress",
          "type": "address"
        }
      ],
      "stateMutability": "nonpayable",
      "type": "constructor"
    },
    {
      "inputs": [
        {
          "internalType": "uint256",
          "name": "_activityId",
          "type": "uint256"
        },
        {
          "internalType": "string",
          "name": "_judgeName",
          "type": "string"
        }
      ],
      "name": "createJudgeInvitation",
      "outputs": [],
      "stateMutability": "nonpayable",
      "type": "function"
    },
    {
      "inputs": [
        {
          "internalType": "uint256",
          "name": "_activityId",
          "type": "uint256"
        },
        {
          "internalType": "string",
          "name": "_judgeName",
          "type": "string"
        }
      ],
      "name": "getJudgeInvitationCode",
      "outputs": [
        {
          "internalType": "bytes32",
          "name": "",
          "type": "bytes32"
        }
      ],
      "stateMutability": "view",
      "type": "function"
    },
    {
      "inputs": [
        {
          "internalType": "uint256",
          "name": "",
          "type": "uint256"
        },
        {
          "internalType": "address",
          "name": "",
          "type": "address"
        }
      ],
      "name": "isJudge",
      "outputs": [
        {
          "internalType": "bool",
          "name": "",
          "type": "bool"
        }
      ],
      "stateMutability": "view",
      "type": "function"
    },
    {
      "inputs": [
        {
          "internalType": "uint256",
          "name": "_activityId",
          "type": "uint256"
        },
        {
          "internalType": "address",
          "name": "_judge",
          "type": "address"
        }
      ],
      "name": "isJudgeInActivity",
      "outputs": [
        {
          "internalType": "bool",
          "name": "",
          "type": "bool"
        }
      ],
      "stateMutability": "view",
      "type": "function"
    },
    {
      "inputs": [
        {
          "internalType": "uint256",
          "name": "",
          "type": "uint256"
        },
        {
          "internalType": "string",
          "name": "",
          "type": "string"
        }
      ],
      "name": "judgeInvitations",
      "outputs": [
        {
          "internalType": "bytes32",
          "name": "",
          "type": "bytes32"
        }
      ],
      "stateMutability": "view",
      "type": "function"
    },
    {
      "inputs": [
        {
          "internalType": "uint256",
          "name": "number",
          "type": "uint256"
        }
      ],
      "name": "random",
      "outputs": [
        {
          "internalType": "uint256",
          "name": "",
          "type": "uint256"
        }
      ],
      "stateMutability": "view",
      "type": "function"
    },
    {
      "inputs": [
        {
          "internalType": "uint256",
          "name": "_activityId",
          "type": "uint256"
        },
        {
          "internalType": "bytes32",
          "name": "_invitationCode",
          "type": "bytes32"
        }
      ],
      "name": "registerAsJudge",
      "outputs": [
        {
          "internalType": "bool",
          "name": "",
          "type": "bool"
        }
      ],
      "stateMutability": "nonpayable",
      "type": "function"
    },
    {
      "inputs": [
        {
          "internalType": "address",
          "name": "_newActivitiesManagementAddress",
          "type": "address"
        }
      ],
      "name": "updateDependencies",
      "outputs": [],
      "stateMutability": "nonpayable",
      "type": "function"
    }
  ],
  "bytecode": "0x6080604052348015600e575f5ffd5b5060405161086c38038061086c833981016040819052602b916077565b600180546001600160a01b039283166001600160a01b0319918216179091555f805493909216921691909117905560a3565b80516001600160a01b03811681146072575f5ffd5b919050565b5f5f604083850312156087575f5ffd5b608e83605d565b9150609a60208401605d565b90509250929050565b6107bc806100b05f395ff3fe608060405234801561000f575f5ffd5b5060043610610085575f3560e01c80634f7304e5116100585780634f7304e514610122578063a25232f51461015a578063b863bd3714610187578063e76088ea1461019a575f5ffd5b8063086dbb1b1461008957806319e04bac1461009e578063375bbce1146100ec5780633d0f067c1461010f575b5f5ffd5b61009c610097366004610579565b6101ad565b005b6100d96100ac366004610579565b600460209081525f9283526040909220815180830184018051928152908401929093019190912091525481565b6040519081526020015b60405180910390f35b6100ff6100fa366004610636565b61039d565b60405190151581526020016100e3565b61009c61011d36600461066d565b6103f2565b6100ff61013036600461068f565b5f9182526003602090815260408084206001600160a01b0393909316845291905290205460ff1690565b6100ff61016836600461068f565b600360209081525f928352604080842090915290825290205460ff1681565b6100d96101953660046106bd565b6104d7565b6100d96101a8366004610579565b610533565b5f805460405163c22e165d60e01b8152600481018590528492916001600160a01b03169063c22e165d90602401602060405180830381865afa1580156101f5573d5f5f3e3d5ffd5b505050506040513d601f19601f8201168201806040525081019061021991906106d4565b9050336001600160a01b038216146102835760405162461bcd60e51b815260206004820152602260248201527f4e6f7420746865206f7267616e697a6572206f66207468697320616374697669604482015261747960f01b60648201526084015b60405180910390fd5b5f84815260046020526040808220905161029e908690610706565b9081526020016040518091039020541461030c5760405162461bcd60e51b815260206004820152602960248201527f496e7669746174696f6e20616c7265616479206372656174656420666f722074604482015268686973206a7564676560b81b606482015260840161027a565b5f61031c610195866103e8610711565b90505f81853360405160200161033493929190610734565b60408051601f1981840301815282825280516020918201205f8a8152600283528381208282528352838120805460ff191660011790558a815260049092529190209092508291610385908890610706565b90815260405190819003602001902055505050505050565b5f82815260026020908152604080832084845290915281205460ff166103c457505f6103ec565b505f8281526003602090815260408083203384529091529020805460ff191660019081179091555b92915050565b60015f9054906101000a90046001600160a01b03166001600160a01b031663893d20e86040518163ffffffff1660e01b8152600401602060405180830381865afa158015610442573d5f5f3e3d5ffd5b505050506040513d601f19601f8201168201806040525081019061046691906106d4565b6001600160a01b0316336001600160a01b0316146104b65760405162461bcd60e51b815260206004820152600d60248201526c2737ba103a34329037bbb732b960991b604482015260640161027a565b5f80546001600160a01b0319166001600160a01b0392909216919091179055565b5f8142443360405160200161051193929190928352602083019190915260601b6bffffffffffffffffffffffff1916604082015260540190565b604051602081830303815290604052805190602001205f1c6103ec9190610767565b5f82815260046020526040808220905161054e908490610706565b908152602001604051809103902054905092915050565b634e487b7160e01b5f52604160045260245ffd5b5f5f6040838503121561058a575f5ffd5b82359150602083013567ffffffffffffffff8111156105a7575f5ffd5b8301601f810185136105b7575f5ffd5b803567ffffffffffffffff8111156105d1576105d1610565565b604051601f8201601f19908116603f0116810167ffffffffffffffff8111828210171561060057610600610565565b604052818152828201602001871015610617575f5ffd5b816020840160208301375f602083830101528093505050509250929050565b5f5f60408385031215610647575f5ffd5b50508035926020909101359150565b6001600160a01b038116811461066a575f5ffd5b50565b5f6020828403121561067d575f5ffd5b813561068881610656565b9392505050565b5f5f604083850312156106a0575f5ffd5b8235915060208301356106b281610656565b809150509250929050565b5f602082840312156106cd575f5ffd5b5035919050565b5f602082840312156106e4575f5ffd5b815161068881610656565b5f81518060208401855e5f93019283525090919050565b5f61068882846106ef565b80820281158282048414176103ec57634e487b7160e01b5f52601160045260245ffd5b8381525f61074560208301856106ef565b60609390931b6bffffffffffffffffffffffff19168352505060140192915050565b5f8261078157634e487b7160e01b5f52601260045260245ffd5b50069056fea264697066735822122041098e9f0d609e381ba72d2b0b290c9669e26136f9bc263ebb8121b054494a7864736f6c634300081c0033",
  "linkReferences": {},
  "deployedLinkReferences": {},
  "immutableReferences": {},
  "inputSourceName": "project/contracts/JudgementManagement.sol",
  "buildInfoId": "solc-0_8_28-addd86dbee720a88b349b4c5eb4e1fbdac532412"
}