{
  "_format": "hh3-artifact-1",
  "contractName": "DemosManagement",
  "sourceName": "contracts/DemosManagement.sol",
  "abi": [
    {
      "inputs": [
        {
          "internalType": "address",
          "name": "_activitiesManagementAddress",
          "type": "address"
        },
        {
          "internalType": "address",
          "name": "_authorityManagementAddress",
          "type": "address"
        }
      ],
      "stateMutability": "nonpayable",
      "type": "constructor"
    },
    {
      "anonymous": false,
      "inputs": [
        {
          "indexed": true,
          "internalType": "uint256",
          "name": "activityId",
          "type": "uint256"
        },
        {
          "components": [
            {
              "internalType": "uint256",
              "name": "demoId",
              "type": "uint256"
            },
            {
              "internalType": "uint256",
              "name": "activityId",
              "type": "uint256"
            },
            {
              "internalType": "uint256",
              "name": "cohortId",
              "type": "uint256"
            },
            {
              "internalType": "string",
              "name": "dataCID",
              "type": "string"
            },
            {
              "internalType": "address",
              "name": "submitter",
              "type": "address"
            }
          ],
          "indexed": false,
          "internalType": "struct IDemosManagement.Demo",
          "name": "demo",
          "type": "tuple"
        }
      ],
      "name": "DemoSubmitted",
      "type": "event"
    },
    {
      "inputs": [
        {
          "internalType": "uint256",
          "name": "",
          "type": "uint256"
        },
        {
          "internalType": "uint256",
          "name": "",
          "type": "uint256"
        }
      ],
      "name": "demos",
      "outputs": [
        {
          "internalType": "uint256",
          "name": "demoId",
          "type": "uint256"
        },
        {
          "internalType": "uint256",
          "name": "activityId",
          "type": "uint256"
        },
        {
          "internalType": "uint256",
          "name": "cohortId",
          "type": "uint256"
        },
        {
          "internalType": "string",
          "name": "dataCID",
          "type": "string"
        },
        {
          "internalType": "address",
          "name": "submitter",
          "type": "address"
        }
      ],
      "stateMutability": "view",
      "type": "function"
    },
    {
      "inputs": [
        {
          "internalType": "uint256",
          "name": "_activityId",
          "type": "uint256"
        },
        {
          "internalType": "uint256",
          "name": "_demoId",
          "type": "uint256"
        }
      ],
      "name": "getDemoCohortId",
      "outputs": [
        {
          "internalType": "uint256",
          "name": "",
          "type": "uint256"
        }
      ],
      "stateMutability": "view",
      "type": "function"
    },
    {
      "inputs": [
        {
          "internalType": "uint256",
          "name": "_activityId",
          "type": "uint256"
        },
        {
          "internalType": "uint256",
          "name": "_cohortId",
          "type": "uint256"
        },
        {
          "internalType": "string",
          "name": "_dataCID",
          "type": "string"
        }
      ],
      "name": "submitDemo",
      "outputs": [],
      "stateMutability": "nonpayable",
      "type": "function"
    },
    {
      "inputs": [
        {
          "internalType": "address",
          "name": "_activitiesManagementAddress",
          "type": "address"
        }
      ],
      "name": "updateDependencies",
      "outputs": [],
      "stateMutability": "nonpayable",
      "type": "function"
    }
  ],
  "bytecode": "0x6080604052348015600e575f5ffd5b50604051610b27380380610b27833981016040819052602b916074565b5f80546001600160a01b039384166001600160a01b0319918216179091556001805492909316911617905560a0565b80516001600160a01b0381168114606f575f5ffd5b919050565b5f5f604083850312156084575f5ffd5b608b83605a565b9150609760208401605a565b90509250929050565b610a7a806100ad5f395ff3fe608060405234801561000f575f5ffd5b506004361061004a575f3560e01c806335ad34341461004e5780633d0f067c1461006357806387c8e95114610076578063957ffcc11461009c575b5f5ffd5b61006161005c3660046106d3565b6100c0565b005b6100616100713660046107af565b6103cd565b6100896100843660046107d1565b6104b2565b6040519081526020015b60405180910390f35b6100af6100aa3660046107d1565b6105e4565b60405161009395949392919061081f565b5f54604051630335182160e31b81526004810185905284916001600160a01b0316906319a8c10890602401602060405180830381865afa158015610106573d5f5f3e3d5ffd5b505050506040513d601f19601f8201168201806040525081019061012a919061085d565b6101715760405162461bcd60e51b8152602060048201526013602482015272125b9d985b1a59081858dd1a5d9a5d1e481251606a1b60448201526064015b60405180910390fd5b5f54604051630257dae560e01b8152600481018390526001600160a01b0390911690630257dae590602401602060405180830381865afa1580156101b7573d5f5f3e3d5ffd5b505050506040513d601f19601f820116820180604052508101906101db919061085d565b61021e5760405162461bcd60e51b81526020600482015260146024820152734e6f7420696e206861636b74686f6e2074696d6560601b6044820152606401610168565b5f54604051637a945d5560e11b8152600481018690523360248201526001600160a01b039091169063f528baaa90604401602060405180830381865afa15801561026a573d5f5f3e3d5ffd5b505050506040513d601f19601f8201168201806040525081019061028e919061085d565b6102e55760405162461bcd60e51b815260206004820152602260248201527f4e6f742061207061727469636970616e74206f66207468697320616374697669604482015261747960f01b6064820152608401610168565b5f8481526002602081815260408084208054825160a0810184528181528085018b81529381018a8152606082018a815233608084015287875260018085018655948952959097208151600584029091019081559351928401929092559451938201939093559051829190600382019061035e9082610900565b506080820151816004015f6101000a8154816001600160a01b0302191690836001600160a01b031602179055505050857f9fa3b7dec2c6be42d1630f007061b2adc60719f01879b25e89735c08b69664b3826040516103bd91906109bb565b60405180910390a2505050505050565b60015f9054906101000a90046001600160a01b03166001600160a01b031663893d20e86040518163ffffffff1660e01b8152600401602060405180830381865afa15801561041d573d5f5f3e3d5ffd5b505050506040513d601f19601f820116820180604052508101906104419190610a15565b6001600160a01b0316336001600160a01b0316146104915760405162461bcd60e51b815260206004820152600d60248201526c2737ba103a34329037bbb732b960991b6044820152606401610168565b5f80546001600160a01b0319166001600160a01b0392909216919091179055565b5f828152600260205260408120548211156105015760405162461bcd60e51b815260206004820152600f60248201526e125b9d985b1a590819195b5bc81251608a1b6044820152606401610168565b5f54604051630335182160e31b8152600481018590526001600160a01b03909116906319a8c10890602401602060405180830381865afa158015610547573d5f5f3e3d5ffd5b505050506040513d601f19601f8201168201806040525081019061056b919061085d565b6105ad5760405162461bcd60e51b8152602060048201526013602482015272125b9d985b1a59081858dd1a5d9a5d1e481251606a1b6044820152606401610168565b5f8381526002602052604090208054839081106105cc576105cc610a30565b905f5260205f20906005020160020154905092915050565b6002602052815f5260405f2081815481106105fd575f80fd5b905f5260205f2090600502015f9150915050805f01549080600101549080600201549080600301805461062f9061087c565b80601f016020809104026020016040519081016040528092919081815260200182805461065b9061087c565b80156106a65780601f1061067d576101008083540402835291602001916106a6565b820191905f5260205f20905b81548152906001019060200180831161068957829003601f168201915b505050600490930154919250506001600160a01b031685565b634e487b7160e01b5f52604160045260245ffd5b5f5f5f606084860312156106e5575f5ffd5b8335925060208401359150604084013567ffffffffffffffff811115610709575f5ffd5b8401601f81018613610719575f5ffd5b803567ffffffffffffffff811115610733576107336106bf565b604051601f8201601f19908116603f0116810167ffffffffffffffff81118282101715610762576107626106bf565b604052818152828201602001881015610779575f5ffd5b816020840160208301375f602083830101528093505050509250925092565b6001600160a01b03811681146107ac575f5ffd5b50565b5f602082840312156107bf575f5ffd5b81356107ca81610798565b9392505050565b5f5f604083850312156107e2575f5ffd5b50508035926020909101359150565b5f81518084528060208401602086015e5f602082860101526020601f19601f83011685010191505092915050565b85815284602082015283604082015260a060608201525f61084360a08301856107f1565b905060018060a01b03831660808301529695505050505050565b5f6020828403121561086d575f5ffd5b815180151581146107ca575f5ffd5b600181811c9082168061089057607f821691505b6020821081036108ae57634e487b7160e01b5f52602260045260245ffd5b50919050565b601f8211156108fb57805f5260205f20601f840160051c810160208510156108d95750805b601f840160051c820191505b818110156108f8575f81556001016108e5565b50505b505050565b815167ffffffffffffffff81111561091a5761091a6106bf565b61092e81610928845461087c565b846108b4565b6020601f821160018114610960575f83156109495750848201515b5f19600385901b1c1916600184901b1784556108f8565b5f84815260208120601f198516915b8281101561098f578785015182556020948501946001909201910161096f565b50848210156109ac57868401515f19600387901b60f8161c191681555b50505050600190811b01905550565b602081528151602082015260208201516040820152604082015160608201525f606083015160a060808401526109f460c08401826107f1565b608094909401516001600160a01b031660a093909301929092525090919050565b5f60208284031215610a25575f5ffd5b81516107ca81610798565b634e487b7160e01b5f52603260045260245ffdfea26469706673582212201cca75f2459f5ff9d959f39b977b4ed585e34f73c8ecd2cfa22d812a6b3a1b7264736f6c634300081c0033",
  "linkReferences": {},
  "deployedLinkReferences": {},
  "immutableReferences": {},
  "inputSourceName": "project/contracts/DemosManagement.sol",
  "buildInfoId": "solc-0_8_28-3bb409b82b61c0ef1f82471630c2a46f19ec9306"
}